{"contracts/HelloWorld.sol":{"HelloWorld":{"abi":[{"inputs":[],"stateMutability":"nonpayable","type":"constructor"},{"inputs":[],"name":"helloWorld","outputs":[{"internalType":"string","name":"","type":"string"}],"stateMutability":"view","type":"function"},{"inputs":[],"name":"owner","outputs":[{"internalType":"address","name":"","type":"address"}],"stateMutability":"view","type":"function"},{"inputs":[{"internalType":"string","name":"newText","type":"string"}],"name":"setText","outputs":[],"stateMutability":"nonpayable","type":"function"},{"inputs":[{"internalType":"address","name":"newOwner","type":"address"}],"name":"transferOwnership","outputs":[],"stateMutability":"nonpayable","type":"function"}],"evm":{"bytecode":{"linkReferences":{},"object":"60806040523480156200001157600080fd5b506040518060400160405280600c81526020017f48656c6c6f20576f726c64210000000000000000000000000000000000000000815250600090816200005891906200031a565b5033600160006101000a81548173ffffffffffffffffffffffffffffffffffffffff021916908373ffffffffffffffffffffffffffffffffffffffff16021790555062000401565b600081519050919050565b7f4e487b7100000000000000000000000000000000000000000000000000000000600052604160045260246000fd5b7f4e487b7100000000000000000000000000000000000000000000000000000000600052602260045260246000fd5b600060028204905060018216806200012257607f821691505b602082108103620001385762000137620000da565b5b50919050565b60008190508160005260206000209050919050565b60006020601f8301049050919050565b600082821b905092915050565b600060088302620001a27fffffffffffffffffffffffffffffffffffffffffffffffffffffffffffffffff8262000163565b620001ae868362000163565b95508019841693508086168417925050509392505050565b6000819050919050565b6000819050919050565b6000620001fb620001f5620001ef84620001c6565b620001d0565b620001c6565b9050919050565b6000819050919050565b6200021783620001da565b6200022f620002268262000202565b84845462000170565b825550505050565b600090565b6200024662000237565b620002538184846200020c565b505050565b5b818110156200027b576200026f6000826200023c565b60018101905062000259565b5050565b601f821115620002ca5762000294816200013e565b6200029f8462000153565b81016020851015620002af578190505b620002c7620002be8562000153565b83018262000258565b50505b505050565b600082821c905092915050565b6000620002ef60001984600802620002cf565b1980831691505092915050565b60006200030a8383620002dc565b9150826002028217905092915050565b6200032582620000a0565b67ffffffffffffffff811115620003415762000340620000ab565b5b6200034d825462000109565b6200035a8282856200027f565b600060209050601f8311600181146200039257600084156200037d578287015190505b620003898582620002fc565b865550620003f9565b601f198416620003a2866200013e565b60005b82811015620003cc57848901518255600182019150602085019450602081019050620003a5565b86831015620003ec5784890151620003e8601f891682620002dc565b8355505b6001600288020188555050505b505050505050565b6108dc80620004116000396000f3fe608060405234801561001057600080fd5b506004361061004c5760003560e01c80635d3a1f9d146100515780638da5cb5b1461006d578063c605f76c1461008b578063f2fde38b146100a9575b600080fd5b61006b60048036038101906100669190610366565b6100c5565b005b61007561016b565b60405161008291906103f4565b60405180910390f35b610093610191565b6040516100a0919061049f565b60405180910390f35b6100c360048036038101906100be91906104ed565b610223565b005b600160009054906101000a900473ffffffffffffffffffffffffffffffffffffffff1673ffffffffffffffffffffffffffffffffffffffff163373ffffffffffffffffffffffffffffffffffffffff1614610155576040517f08c379a000000000000000000000000000000000000000000000000000000000815260040161014c90610566565b60405180910390fd5b8181600091826101669291906107d6565b505050565b600160009054906101000a900473ffffffffffffffffffffffffffffffffffffffff1681565b6060600080546101a0906105ef565b80601f01602080910402602001604051908101604052809291908181526020018280546101cc906105ef565b80156102195780601f106101ee57610100808354040283529160200191610219565b820191906000526020600020905b8154815290600101906020018083116101fc57829003601f168201915b5050505050905090565b600160009054906101000a900473ffffffffffffffffffffffffffffffffffffffff1673ffffffffffffffffffffffffffffffffffffffff163373ffffffffffffffffffffffffffffffffffffffff16146102b3576040517f08c379a00000000000000000000000000000000000000000000000000000000081526004016102aa90610566565b60405180910390fd5b80600160006101000a81548173ffffffffffffffffffffffffffffffffffffffff021916908373ffffffffffffffffffffffffffffffffffffffff16021790555050565b600080fd5b600080fd5b600080fd5b600080fd5b600080fd5b60008083601f84011261032657610325610301565b5b8235905067ffffffffffffffff81111561034357610342610306565b5b60208301915083600182028301111561035f5761035e61030b565b5b9250929050565b6000806020838503121561037d5761037c6102f7565b5b600083013567ffffffffffffffff81111561039b5761039a6102fc565b5b6103a785828601610310565b92509250509250929050565b600073ffffffffffffffffffffffffffffffffffffffff82169050919050565b60006103de826103b3565b9050919050565b6103ee816103d3565b82525050565b600060208201905061040960008301846103e5565b92915050565b600081519050919050565b600082825260208201905092915050565b60005b8381101561044957808201518184015260208101905061042e565b60008484015250505050565b6000601f19601f8301169050919050565b60006104718261040f565b61047b818561041a565b935061048b81856020860161042b565b61049481610455565b840191505092915050565b600060208201905081810360008301526104b98184610466565b905092915050565b6104ca816103d3565b81146104d557600080fd5b50565b6000813590506104e7816104c1565b92915050565b600060208284031215610503576105026102f7565b5b6000610511848285016104d8565b91505092915050565b7f43616c6c6572206973206e6f7420746865206f776e6572000000000000000000600082015250565b600061055060178361041a565b915061055b8261051a565b602082019050919050565b6000602082019050818103600083015261057f81610543565b9050919050565b600082905092915050565b7f4e487b7100000000000000000000000000000000000000000000000000000000600052604160045260246000fd5b7f4e487b7100000000000000000000000000000000000000000000000000000000600052602260045260246000fd5b6000600282049050600182168061060757607f821691505b60208210810361061a576106196105c0565b5b50919050565b60008190508160005260206000209050919050565b60006020601f8301049050919050565b600082821b905092915050565b6000600883026106827fffffffffffffffffffffffffffffffffffffffffffffffffffffffffffffffff82610645565b61068c8683610645565b95508019841693508086168417925050509392505050565b6000819050919050565b6000819050919050565b60006106d36106ce6106c9846106a4565b6106ae565b6106a4565b9050919050565b6000819050919050565b6106ed836106b8565b6107016106f9826106da565b848454610652565b825550505050565b600090565b610716610709565b6107218184846106e4565b505050565b5b818110156107455761073a60008261070e565b600181019050610727565b5050565b601f82111561078a5761075b81610620565b61076484610635565b81016020851015610773578190505b61078761077f85610635565b830182610726565b50505b505050565b600082821c905092915050565b60006107ad6000198460080261078f565b1980831691505092915050565b60006107c6838361079c565b9150826002028217905092915050565b6107e08383610586565b67ffffffffffffffff8111156107f9576107f8610591565b5b61080382546105ef565b61080e828285610749565b6000601f83116001811461083d576000841561082b578287013590505b61083585826107ba565b86555061089d565b601f19841661084b86610620565b60005b828110156108735784890135825560018201915060208501945060208101905061084e565b86831015610890578489013561088c601f89168261079c565b8355505b6001600288020188555050505b5050505050505056fea26469706673582212200f19829a735df99259555d7a3d8568c64e7ce9089810e54e4157da8c7354107864736f6c63430008110033","opcodes":"PUSH1 0x80 PUSH1 0x40 MSTORE CALLVALUE DUP1 ISZERO PUSH3 0x11 JUMPI PUSH1 0x0 DUP1 REVERT JUMPDEST POP PUSH1 0x40 MLOAD DUP1 PUSH1 0x40 ADD PUSH1 0x40 MSTORE DUP1 PUSH1 0xC DUP2 MSTORE PUSH1 0x20 ADD PUSH32 0x48656C6C6F20576F726C64210000000000000000000000000000000000000000 DUP2 MSTORE POP PUSH1 0x0 SWAP1 DUP2 PUSH3 0x58 SWAP2 SWAP1 PUSH3 0x31A JUMP JUMPDEST POP CALLER PUSH1 0x1 PUSH1 0x0 PUSH2 0x100 EXP DUP2 SLOAD DUP2 PUSH20 0xFFFFFFFFFFFFFFFFFFFFFFFFFFFFFFFFFFFFFFFF MUL NOT AND SWAP1 DUP4 PUSH20 0xFFFFFFFFFFFFFFFFFFFFFFFFFFFFFFFFFFFFFFFF AND MUL OR SWAP1 SSTORE POP PUSH3 0x401 JUMP JUMPDEST PUSH1 0x0 DUP2 MLOAD SWAP1 POP SWAP2 SWAP1 POP JUMP JUMPDEST PUSH32 0x4E487B7100000000000000000000000000000000000000000000000000000000 PUSH1 0x0 MSTORE PUSH1 0x41 PUSH1 0x4 MSTORE PUSH1 0x24 PUSH1 0x0 REVERT JUMPDEST PUSH32 0x4E487B7100000000000000000000000000000000000000000000000000000000 PUSH1 0x0 MSTORE PUSH1 0x22 PUSH1 0x4 MSTORE PUSH1 0x24 PUSH1 0x0 REVERT JUMPDEST PUSH1 0x0 PUSH1 0x2 DUP3 DIV SWAP1 POP PUSH1 0x1 DUP3 AND DUP1 PUSH3 0x122 JUMPI PUSH1 0x7F DUP3 AND SWAP2 POP JUMPDEST PUSH1 0x20 DUP3 LT DUP2 SUB PUSH3 0x138 JUMPI PUSH3 0x137 PUSH3 0xDA JUMP JUMPDEST JUMPDEST POP SWAP2 SWAP1 POP JUMP JUMPDEST PUSH1 0x0 DUP2 SWAP1 POP DUP2 PUSH1 0x0 MSTORE PUSH1 0x20 PUSH1 0x0 KECCAK256 SWAP1 POP SWAP2 SWAP1 POP JUMP JUMPDEST PUSH1 0x0 PUSH1 0x20 PUSH1 0x1F DUP4 ADD DIV SWAP1 POP SWAP2 SWAP1 POP JUMP JUMPDEST PUSH1 0x0 DUP3 DUP3 SHL SWAP1 POP SWAP3 SWAP2 POP POP JUMP JUMPDEST PUSH1 0x0 PUSH1 0x8 DUP4 MUL PUSH3 0x1A2 PUSH32 0xFFFFFFFFFFFFFFFFFFFFFFFFFFFFFFFFFFFFFFFFFFFFFFFFFFFFFFFFFFFFFFFF DUP3 PUSH3 0x163 JUMP JUMPDEST PUSH3 0x1AE DUP7 DUP4 PUSH3 0x163 JUMP JUMPDEST SWAP6 POP DUP1 NOT DUP5 AND SWAP4 POP DUP1 DUP7 AND DUP5 OR SWAP3 POP POP POP SWAP4 SWAP3 POP POP POP JUMP JUMPDEST PUSH1 0x0 DUP2 SWAP1 POP SWAP2 SWAP1 POP JUMP JUMPDEST PUSH1 0x0 DUP2 SWAP1 POP SWAP2 SWAP1 POP JUMP JUMPDEST PUSH1 0x0 PUSH3 0x1FB PUSH3 0x1F5 PUSH3 0x1EF DUP5 PUSH3 0x1C6 JUMP JUMPDEST PUSH3 0x1D0 JUMP JUMPDEST PUSH3 0x1C6 JUMP JUMPDEST SWAP1 POP SWAP2 SWAP1 POP JUMP JUMPDEST PUSH1 0x0 DUP2 SWAP1 POP SWAP2 SWAP1 POP JUMP JUMPDEST PUSH3 0x217 DUP4 PUSH3 0x1DA JUMP JUMPDEST PUSH3 0x22F PUSH3 0x226 DUP3 PUSH3 0x202 JUMP JUMPDEST DUP5 DUP5 SLOAD PUSH3 0x170 JUMP JUMPDEST DUP3 SSTORE POP POP POP POP JUMP JUMPDEST PUSH1 0x0 SWAP1 JUMP JUMPDEST PUSH3 0x246 PUSH3 0x237 JUMP JUMPDEST PUSH3 0x253 DUP2 DUP5 DUP5 PUSH3 0x20C JUMP JUMPDEST POP POP POP JUMP JUMPDEST JUMPDEST DUP2 DUP2 LT ISZERO PUSH3 0x27B JUMPI PUSH3 0x26F PUSH1 0x0 DUP3 PUSH3 0x23C JUMP JUMPDEST PUSH1 0x1 DUP2 ADD SWAP1 POP PUSH3 0x259 JUMP JUMPDEST POP POP JUMP JUMPDEST PUSH1 0x1F DUP3 GT ISZERO PUSH3 0x2CA JUMPI PUSH3 0x294 DUP2 PUSH3 0x13E JUMP JUMPDEST PUSH3 0x29F DUP5 PUSH3 0x153 JUMP JUMPDEST DUP2 ADD PUSH1 0x20 DUP6 LT ISZERO PUSH3 0x2AF JUMPI DUP2 SWAP1 POP JUMPDEST PUSH3 0x2C7 PUSH3 0x2BE DUP6 PUSH3 0x153 JUMP JUMPDEST DUP4 ADD DUP3 PUSH3 0x258 JUMP JUMPDEST POP POP JUMPDEST POP POP POP JUMP JUMPDEST PUSH1 0x0 DUP3 DUP3 SHR SWAP1 POP SWAP3 SWAP2 POP POP JUMP JUMPDEST PUSH1 0x0 PUSH3 0x2EF PUSH1 0x0 NOT DUP5 PUSH1 0x8 MUL PUSH3 0x2CF JUMP JUMPDEST NOT DUP1 DUP4 AND SWAP2 POP POP SWAP3 SWAP2 POP POP JUMP JUMPDEST PUSH1 0x0 PUSH3 0x30A DUP4 DUP4 PUSH3 0x2DC JUMP JUMPDEST SWAP2 POP DUP3 PUSH1 0x2 MUL DUP3 OR SWAP1 POP SWAP3 SWAP2 POP POP JUMP JUMPDEST PUSH3 0x325 DUP3 PUSH3 0xA0 JUMP JUMPDEST PUSH8 0xFFFFFFFFFFFFFFFF DUP2 GT ISZERO PUSH3 0x341 JUMPI PUSH3 0x340 PUSH3 0xAB JUMP JUMPDEST JUMPDEST PUSH3 0x34D DUP3 SLOAD PUSH3 0x109 JUMP JUMPDEST PUSH3 0x35A DUP3 DUP3 DUP6 PUSH3 0x27F JUMP JUMPDEST PUSH1 0x0 PUSH1 0x20 SWAP1 POP PUSH1 0x1F DUP4 GT PUSH1 0x1 DUP2 EQ PUSH3 0x392 JUMPI PUSH1 0x0 DUP5 ISZERO PUSH3 0x37D JUMPI DUP3 DUP8 ADD MLOAD SWAP1 POP JUMPDEST PUSH3 0x389 DUP6 DUP3 PUSH3 0x2FC JUMP JUMPDEST DUP7 SSTORE POP PUSH3 0x3F9 JUMP JUMPDEST PUSH1 0x1F NOT DUP5 AND PUSH3 0x3A2 DUP7 PUSH3 0x13E JUMP JUMPDEST PUSH1 0x0 JUMPDEST DUP3 DUP2 LT ISZERO PUSH3 0x3CC JUMPI DUP5 DUP10 ADD MLOAD DUP3 SSTORE PUSH1 0x1 DUP3 ADD SWAP2 POP PUSH1 0x20 DUP6 ADD SWAP5 POP PUSH1 0x20 DUP2 ADD SWAP1 POP PUSH3 0x3A5 JUMP JUMPDEST DUP7 DUP4 LT ISZERO PUSH3 0x3EC JUMPI DUP5 DUP10 ADD MLOAD PUSH3 0x3E8 PUSH1 0x1F DUP10 AND DUP3 PUSH3 0x2DC JUMP JUMPDEST DUP4 SSTORE POP JUMPDEST PUSH1 0x1 PUSH1 0x2 DUP9 MUL ADD DUP9 SSTORE POP POP POP JUMPDEST POP POP POP POP POP POP JUMP JUMPDEST PUSH2 0x8DC DUP1 PUSH3 0x411 PUSH1 0x0 CODECOPY PUSH1 0x0 RETURN INVALID PUSH1 0x80 PUSH1 0x40 MSTORE CALLVALUE DUP1 ISZERO PUSH2 0x10 JUMPI PUSH1 0x0 DUP1 REVERT JUMPDEST POP PUSH1 0x4 CALLDATASIZE LT PUSH2 0x4C JUMPI PUSH1 0x0 CALLDATALOAD PUSH1 0xE0 SHR DUP1 PUSH4 0x5D3A1F9D EQ PUSH2 0x51 JUMPI DUP1 PUSH4 0x8DA5CB5B EQ PUSH2 0x6D JUMPI DUP1 PUSH4 0xC605F76C EQ PUSH2 0x8B JUMPI DUP1 PUSH4 0xF2FDE38B EQ PUSH2 0xA9 JUMPI JUMPDEST PUSH1 0x0 DUP1 REVERT JUMPDEST PUSH2 0x6B PUSH1 0x4 DUP1 CALLDATASIZE SUB DUP2 ADD SWAP1 PUSH2 0x66 SWAP2 SWAP1 PUSH2 0x366 JUMP JUMPDEST PUSH2 0xC5 JUMP JUMPDEST STOP JUMPDEST PUSH2 0x75 PUSH2 0x16B JUMP JUMPDEST PUSH1 0x40 MLOAD PUSH2 0x82 SWAP2 SWAP1 PUSH2 0x3F4 JUMP JUMPDEST PUSH1 0x40 MLOAD DUP1 SWAP2 SUB SWAP1 RETURN JUMPDEST PUSH2 0x93 PUSH2 0x191 JUMP JUMPDEST PUSH1 0x40 MLOAD PUSH2 0xA0 SWAP2 SWAP1 PUSH2 0x49F JUMP JUMPDEST PUSH1 0x40 MLOAD DUP1 SWAP2 SUB SWAP1 RETURN JUMPDEST PUSH2 0xC3 PUSH1 0x4 DUP1 CALLDATASIZE SUB DUP2 ADD SWAP1 PUSH2 0xBE SWAP2 SWAP1 PUSH2 0x4ED JUMP JUMPDEST PUSH2 0x223 JUMP JUMPDEST STOP JUMPDEST PUSH1 0x1 PUSH1 0x0 SWAP1 SLOAD SWAP1 PUSH2 0x100 EXP SWAP1 DIV PUSH20 0xFFFFFFFFFFFFFFFFFFFFFFFFFFFFFFFFFFFFFFFF AND PUSH20 0xFFFFFFFFFFFFFFFFFFFFFFFFFFFFFFFFFFFFFFFF AND CALLER PUSH20 0xFFFFFFFFFFFFFFFFFFFFFFFFFFFFFFFFFFFFFFFF AND EQ PUSH2 0x155 JUMPI PUSH1 0x40 MLOAD PUSH32 0x8C379A000000000000000000000000000000000000000000000000000000000 DUP2 MSTORE PUSH1 0x4 ADD PUSH2 0x14C SWAP1 PUSH2 0x566 JUMP JUMPDEST PUSH1 0x40 MLOAD DUP1 SWAP2 SUB SWAP1 REVERT JUMPDEST DUP2 DUP2 PUSH1 0x0 SWAP2 DUP3 PUSH2 0x166 SWAP3 SWAP2 SWAP1 PUSH2 0x7D6 JUMP JUMPDEST POP POP POP JUMP JUMPDEST PUSH1 0x1 PUSH1 0x0 SWAP1 SLOAD SWAP1 PUSH2 0x100 EXP SWAP1 DIV PUSH20 0xFFFFFFFFFFFFFFFFFFFFFFFFFFFFFFFFFFFFFFFF AND DUP2 JUMP JUMPDEST PUSH1 0x60 PUSH1 0x0 DUP1 SLOAD PUSH2 0x1A0 SWAP1 PUSH2 0x5EF JUMP JUMPDEST DUP1 PUSH1 0x1F ADD PUSH1 0x20 DUP1 SWAP2 DIV MUL PUSH1 0x20 ADD PUSH1 0x40 MLOAD SWAP1 DUP2 ADD PUSH1 0x40 MSTORE DUP1 SWAP3 SWAP2 SWAP1 DUP2 DUP2 MSTORE PUSH1 0x20 ADD DUP3 DUP1 SLOAD PUSH2 0x1CC SWAP1 PUSH2 0x5EF JUMP JUMPDEST DUP1 ISZERO PUSH2 0x219 JUMPI DUP1 PUSH1 0x1F LT PUSH2 0x1EE JUMPI PUSH2 0x100 DUP1 DUP4 SLOAD DIV MUL DUP4 MSTORE SWAP2 PUSH1 0x20 ADD SWAP2 PUSH2 0x219 JUMP JUMPDEST DUP3 ADD SWAP2 SWAP1 PUSH1 0x0 MSTORE PUSH1 0x20 PUSH1 0x0 KECCAK256 SWAP1 JUMPDEST DUP2 SLOAD DUP2 MSTORE SWAP1 PUSH1 0x1 ADD SWAP1 PUSH1 0x20 ADD DUP1 DUP4 GT PUSH2 0x1FC JUMPI DUP3 SWAP1 SUB PUSH1 0x1F AND DUP3 ADD SWAP2 JUMPDEST POP POP POP POP POP SWAP1 POP SWAP1 JUMP JUMPDEST PUSH1 0x1 PUSH1 0x0 SWAP1 SLOAD SWAP1 PUSH2 0x100 EXP SWAP1 DIV PUSH20 0xFFFFFFFFFFFFFFFFFFFFFFFFFFFFFFFFFFFFFFFF AND PUSH20 0xFFFFFFFFFFFFFFFFFFFFFFFFFFFFFFFFFFFFFFFF AND CALLER PUSH20 0xFFFFFFFFFFFFFFFFFFFFFFFFFFFFFFFFFFFFFFFF AND EQ PUSH2 0x2B3 JUMPI PUSH1 0x40 MLOAD PUSH32 0x8C379A000000000000000000000000000000000000000000000000000000000 DUP2 MSTORE PUSH1 0x4 ADD PUSH2 0x2AA SWAP1 PUSH2 0x566 JUMP JUMPDEST PUSH1 0x40 MLOAD DUP1 SWAP2 SUB SWAP1 REVERT JUMPDEST DUP1 PUSH1 0x1 PUSH1 0x0 PUSH2 0x100 EXP DUP2 SLOAD DUP2 PUSH20 0xFFFFFFFFFFFFFFFFFFFFFFFFFFFFFFFFFFFFFFFF MUL NOT AND SWAP1 DUP4 PUSH20 0xFFFFFFFFFFFFFFFFFFFFFFFFFFFFFFFFFFFFFFFF AND MUL OR SWAP1 SSTORE POP POP JUMP JUMPDEST PUSH1 0x0 DUP1 REVERT JUMPDEST PUSH1 0x0 DUP1 REVERT JUMPDEST PUSH1 0x0 DUP1 REVERT JUMPDEST PUSH1 0x0 DUP1 REVERT JUMPDEST PUSH1 0x0 DUP1 REVERT JUMPDEST PUSH1 0x0 DUP1 DUP4 PUSH1 0x1F DUP5 ADD SLT PUSH2 0x326 JUMPI PUSH2 0x325 PUSH2 0x301 JUMP JUMPDEST JUMPDEST DUP3 CALLDATALOAD SWAP1 POP PUSH8 0xFFFFFFFFFFFFFFFF DUP2 GT ISZERO PUSH2 0x343 JUMPI PUSH2 0x342 PUSH2 0x306 JUMP JUMPDEST JUMPDEST PUSH1 0x20 DUP4 ADD SWAP2 POP DUP4 PUSH1 0x1 DUP3 MUL DUP4 ADD GT ISZERO PUSH2 0x35F JUMPI PUSH2 0x35E PUSH2 0x30B JUMP JUMPDEST JUMPDEST SWAP3 POP SWAP3 SWAP1 POP JUMP JUMPDEST PUSH1 0x0 DUP1 PUSH1 0x20 DUP4 DUP6 SUB SLT ISZERO PUSH2 0x37D JUMPI PUSH2 0x37C PUSH2 0x2F7 JUMP JUMPDEST JUMPDEST PUSH1 0x0 DUP4 ADD CALLDATALOAD PUSH8 0xFFFFFFFFFFFFFFFF DUP2 GT ISZERO PUSH2 0x39B JUMPI PUSH2 0x39A PUSH2 0x2FC JUMP JUMPDEST JUMPDEST PUSH2 0x3A7 DUP6 DUP3 DUP7 ADD PUSH2 0x310 JUMP JUMPDEST SWAP3 POP SWAP3 POP POP SWAP3 POP SWAP3 SWAP1 POP JUMP JUMPDEST PUSH1 0x0 PUSH20 0xFFFFFFFFFFFFFFFFFFFFFFFFFFFFFFFFFFFFFFFF DUP3 AND SWAP1 POP SWAP2 SWAP1 POP JUMP JUMPDEST PUSH1 0x0 PUSH2 0x3DE DUP3 PUSH2 0x3B3 JUMP JUMPDEST SWAP1 POP SWAP2 SWAP1 POP JUMP JUMPDEST PUSH2 0x3EE DUP2 PUSH2 0x3D3 JUMP JUMPDEST DUP3 MSTORE POP POP JUMP JUMPDEST PUSH1 0x0 PUSH1 0x20 DUP3 ADD SWAP1 POP PUSH2 0x409 PUSH1 0x0 DUP4 ADD DUP5 PUSH2 0x3E5 JUMP JUMPDEST SWAP3 SWAP2 POP POP JUMP JUMPDEST PUSH1 0x0 DUP2 MLOAD SWAP1 POP SWAP2 SWAP1 POP JUMP JUMPDEST PUSH1 0x0 DUP3 DUP3 MSTORE PUSH1 0x20 DUP3 ADD SWAP1 POP SWAP3 SWAP2 POP POP JUMP JUMPDEST PUSH1 0x0 JUMPDEST DUP4 DUP2 LT ISZERO PUSH2 0x449 JUMPI DUP1 DUP3 ADD MLOAD DUP2 DUP5 ADD MSTORE PUSH1 0x20 DUP2 ADD SWAP1 POP PUSH2 0x42E JUMP JUMPDEST PUSH1 0x0 DUP5 DUP5 ADD MSTORE POP POP POP POP JUMP JUMPDEST PUSH1 0x0 PUSH1 0x1F NOT PUSH1 0x1F DUP4 ADD AND SWAP1 POP SWAP2 SWAP1 POP JUMP JUMPDEST PUSH1 0x0 PUSH2 0x471 DUP3 PUSH2 0x40F JUMP JUMPDEST PUSH2 0x47B DUP2 DUP6 PUSH2 0x41A JUMP JUMPDEST SWAP4 POP PUSH2 0x48B DUP2 DUP6 PUSH1 0x20 DUP7 ADD PUSH2 0x42B JUMP JUMPDEST PUSH2 0x494 DUP2 PUSH2 0x455 JUMP JUMPDEST DUP5 ADD SWAP2 POP POP SWAP3 SWAP2 POP POP JUMP JUMPDEST PUSH1 0x0 PUSH1 0x20 DUP3 ADD SWAP1 POP DUP2 DUP2 SUB PUSH1 0x0 DUP4 ADD MSTORE PUSH2 0x4B9 DUP2 DUP5 PUSH2 0x466 JUMP JUMPDEST SWAP1 POP SWAP3 SWAP2 POP POP JUMP JUMPDEST PUSH2 0x4CA DUP2 PUSH2 0x3D3 JUMP JUMPDEST DUP2 EQ PUSH2 0x4D5 JUMPI PUSH1 0x0 DUP1 REVERT JUMPDEST POP JUMP JUMPDEST PUSH1 0x0 DUP2 CALLDATALOAD SWAP1 POP PUSH2 0x4E7 DUP2 PUSH2 0x4C1 JUMP JUMPDEST SWAP3 SWAP2 POP POP JUMP JUMPDEST PUSH1 0x0 PUSH1 0x20 DUP3 DUP5 SUB SLT ISZERO PUSH2 0x503 JUMPI PUSH2 0x502 PUSH2 0x2F7 JUMP JUMPDEST JUMPDEST PUSH1 0x0 PUSH2 0x511 DUP5 DUP3 DUP6 ADD PUSH2 0x4D8 JUMP JUMPDEST SWAP2 POP POP SWAP3 SWAP2 POP POP JUMP JUMPDEST PUSH32 0x43616C6C6572206973206E6F7420746865206F776E6572000000000000000000 PUSH1 0x0 DUP3 ADD MSTORE POP JUMP JUMPDEST PUSH1 0x0 PUSH2 0x550 PUSH1 0x17 DUP4 PUSH2 0x41A JUMP JUMPDEST SWAP2 POP PUSH2 0x55B DUP3 PUSH2 0x51A JUMP JUMPDEST PUSH1 0x20 DUP3 ADD SWAP1 POP SWAP2 SWAP1 POP JUMP JUMPDEST PUSH1 0x0 PUSH1 0x20 DUP3 ADD SWAP1 POP DUP2 DUP2 SUB PUSH1 0x0 DUP4 ADD MSTORE PUSH2 0x57F DUP2 PUSH2 0x543 JUMP JUMPDEST SWAP1 POP SWAP2 SWAP1 POP JUMP JUMPDEST PUSH1 0x0 DUP3 SWAP1 POP SWAP3 SWAP2 POP POP JUMP JUMPDEST PUSH32 0x4E487B7100000000000000000000000000000000000000000000000000000000 PUSH1 0x0 MSTORE PUSH1 0x41 PUSH1 0x4 MSTORE PUSH1 0x24 PUSH1 0x0 REVERT JUMPDEST PUSH32 0x4E487B7100000000000000000000000000000000000000000000000000000000 PUSH1 0x0 MSTORE PUSH1 0x22 PUSH1 0x4 MSTORE PUSH1 0x24 PUSH1 0x0 REVERT JUMPDEST PUSH1 0x0 PUSH1 0x2 DUP3 DIV SWAP1 POP PUSH1 0x1 DUP3 AND DUP1 PUSH2 0x607 JUMPI PUSH1 0x7F DUP3 AND SWAP2 POP JUMPDEST PUSH1 0x20 DUP3 LT DUP2 SUB PUSH2 0x61A JUMPI PUSH2 0x619 PUSH2 0x5C0 JUMP JUMPDEST JUMPDEST POP SWAP2 SWAP1 POP JUMP JUMPDEST PUSH1 0x0 DUP2 SWAP1 POP DUP2 PUSH1 0x0 MSTORE PUSH1 0x20 PUSH1 0x0 KECCAK256 SWAP1 POP SWAP2 SWAP1 POP JUMP JUMPDEST PUSH1 0x0 PUSH1 0x20 PUSH1 0x1F DUP4 ADD DIV SWAP1 POP SWAP2 SWAP1 POP JUMP JUMPDEST PUSH1 0x0 DUP3 DUP3 SHL SWAP1 POP SWAP3 SWAP2 POP POP JUMP JUMPDEST PUSH1 0x0 PUSH1 0x8 DUP4 MUL PUSH2 0x682 PUSH32 0xFFFFFFFFFFFFFFFFFFFFFFFFFFFFFFFFFFFFFFFFFFFFFFFFFFFFFFFFFFFFFFFF DUP3 PUSH2 0x645 JUMP JUMPDEST PUSH2 0x68C DUP7 DUP4 PUSH2 0x645 JUMP JUMPDEST SWAP6 POP DUP1 NOT DUP5 AND SWAP4 POP DUP1 DUP7 AND DUP5 OR SWAP3 POP POP POP SWAP4 SWAP3 POP POP POP JUMP JUMPDEST PUSH1 0x0 DUP2 SWAP1 POP SWAP2 SWAP1 POP JUMP JUMPDEST PUSH1 0x0 DUP2 SWAP1 POP SWAP2 SWAP1 POP JUMP JUMPDEST PUSH1 0x0 PUSH2 0x6D3 PUSH2 0x6CE PUSH2 0x6C9 DUP5 PUSH2 0x6A4 JUMP JUMPDEST PUSH2 0x6AE JUMP JUMPDEST PUSH2 0x6A4 JUMP JUMPDEST SWAP1 POP SWAP2 SWAP1 POP JUMP JUMPDEST PUSH1 0x0 DUP2 SWAP1 POP SWAP2 SWAP1 POP JUMP JUMPDEST PUSH2 0x6ED DUP4 PUSH2 0x6B8 JUMP JUMPDEST PUSH2 0x701 PUSH2 0x6F9 DUP3 PUSH2 0x6DA JUMP JUMPDEST DUP5 DUP5 SLOAD PUSH2 0x652 JUMP JUMPDEST DUP3 SSTORE POP POP POP POP JUMP JUMPDEST PUSH1 0x0 SWAP1 JUMP JUMPDEST PUSH2 0x716 PUSH2 0x709 JUMP JUMPDEST PUSH2 0x721 DUP2 DUP5 DUP5 PUSH2 0x6E4 JUMP JUMPDEST POP POP POP JUMP JUMPDEST JUMPDEST DUP2 DUP2 LT ISZERO PUSH2 0x745 JUMPI PUSH2 0x73A PUSH1 0x0 DUP3 PUSH2 0x70E JUMP JUMPDEST PUSH1 0x1 DUP2 ADD SWAP1 POP PUSH2 0x727 JUMP JUMPDEST POP POP JUMP JUMPDEST PUSH1 0x1F DUP3 GT ISZERO PUSH2 0x78A JUMPI PUSH2 0x75B DUP2 PUSH2 0x620 JUMP JUMPDEST PUSH2 0x764 DUP5 PUSH2 0x635 JUMP JUMPDEST DUP2 ADD PUSH1 0x20 DUP6 LT ISZERO PUSH2 0x773 JUMPI DUP2 SWAP1 POP JUMPDEST PUSH2 0x787 PUSH2 0x77F DUP6 PUSH2 0x635 JUMP JUMPDEST DUP4 ADD DUP3 PUSH2 0x726 JUMP JUMPDEST POP POP JUMPDEST POP POP POP JUMP JUMPDEST PUSH1 0x0 DUP3 DUP3 SHR SWAP1 POP SWAP3 SWAP2 POP POP JUMP JUMPDEST PUSH1 0x0 PUSH2 0x7AD PUSH1 0x0 NOT DUP5 PUSH1 0x8 MUL PUSH2 0x78F JUMP JUMPDEST NOT DUP1 DUP4 AND SWAP2 POP POP SWAP3 SWAP2 POP POP JUMP JUMPDEST PUSH1 0x0 PUSH2 0x7C6 DUP4 DUP4 PUSH2 0x79C JUMP JUMPDEST SWAP2 POP DUP3 PUSH1 0x2 MUL DUP3 OR SWAP1 POP SWAP3 SWAP2 POP POP JUMP JUMPDEST PUSH2 0x7E0 DUP4 DUP4 PUSH2 0x586 JUMP JUMPDEST PUSH8 0xFFFFFFFFFFFFFFFF DUP2 GT ISZERO PUSH2 0x7F9 JUMPI PUSH2 0x7F8 PUSH2 0x591 JUMP JUMPDEST JUMPDEST PUSH2 0x803 DUP3 SLOAD PUSH2 0x5EF JUMP JUMPDEST PUSH2 0x80E DUP3 DUP3 DUP6 PUSH2 0x749 JUMP JUMPDEST PUSH1 0x0 PUSH1 0x1F DUP4 GT PUSH1 0x1 DUP2 EQ PUSH2 0x83D JUMPI PUSH1 0x0 DUP5 ISZERO PUSH2 0x82B JUMPI DUP3 DUP8 ADD CALLDATALOAD SWAP1 POP JUMPDEST PUSH2 0x835 DUP6 DUP3 PUSH2 0x7BA JUMP JUMPDEST DUP7 SSTORE POP PUSH2 0x89D JUMP JUMPDEST PUSH1 0x1F NOT DUP5 AND PUSH2 0x84B DUP7 PUSH2 0x620 JUMP JUMPDEST PUSH1 0x0 JUMPDEST DUP3 DUP2 LT ISZERO PUSH2 0x873 JUMPI DUP5 DUP10 ADD CALLDATALOAD DUP3 SSTORE PUSH1 0x1 DUP3 ADD SWAP2 POP PUSH1 0x20 DUP6 ADD SWAP5 POP PUSH1 0x20 DUP2 ADD SWAP1 POP PUSH2 0x84E JUMP JUMPDEST DUP7 DUP4 LT ISZERO PUSH2 0x890 JUMPI DUP5 DUP10 ADD CALLDATALOAD PUSH2 0x88C PUSH1 0x1F DUP10 AND DUP3 PUSH2 0x79C JUMP JUMPDEST DUP4 SSTORE POP JUMPDEST PUSH1 0x1 PUSH1 0x2 DUP9 MUL ADD DUP9 SSTORE POP POP POP JUMPDEST POP POP POP POP POP POP POP JUMP INVALID LOG2 PUSH5 0x6970667358 0x22 SLT KECCAK256 0xF NOT DUP3 SWAP11 PUSH20 0x5DF99259555D7A3D8568C64E7CE9089810E54E41 JUMPI 0xDA DUP13 PUSH20 0x54107864736F6C63430008110033000000000000 "},"methodIdentifiers":{"helloWorld()":"c605f76c","owner()":"8da5cb5b","setText(string)":"5d3a1f9d","transferOwnership(address)":"f2fde38b"}}}}}