{"contracts/CorrectSortedBallot.sol":{"CorrectSortedBallot":{"abi":[{"inputs":[{"internalType":"bytes32[]","name":"proposalNames","type":"bytes32[]"}],"stateMutability":"nonpayable","type":"constructor"},{"inputs":[{"internalType":"uint256","name":"","type":"uint256"}],"name":"proposals","outputs":[{"internalType":"bytes32","name":"name","type":"bytes32"},{"internalType":"uint256","name":"voteCount","type":"uint256"}],"stateMutability":"view","type":"function"},{"inputs":[{"internalType":"uint256","name":"","type":"uint256"}],"name":"proposalsBeingSorted","outputs":[{"internalType":"bytes32","name":"name","type":"bytes32"},{"internalType":"uint256","name":"voteCount","type":"uint256"}],"stateMutability":"view","type":"function"},{"inputs":[],"name":"restartSorting","outputs":[],"stateMutability":"nonpayable","type":"function"},{"inputs":[],"name":"savedIndex","outputs":[{"internalType":"uint256","name":"","type":"uint256"}],"stateMutability":"view","type":"function"},{"inputs":[{"internalType":"uint256","name":"steps","type":"uint256"}],"name":"sortProposals","outputs":[{"internalType":"bool","name":"","type":"bool"}],"stateMutability":"nonpayable","type":"function"},{"inputs":[],"name":"sorted","outputs":[{"internalType":"bool","name":"isSorted","type":"bool"}],"stateMutability":"view","type":"function"},{"inputs":[],"name":"sortedWords","outputs":[{"internalType":"uint256","name":"","type":"uint256"}],"stateMutability":"view","type":"function"},{"inputs":[],"name":"swaps","outputs":[{"internalType":"uint256","name":"","type":"uint256"}],"stateMutability":"view","type":"function"}],"evm":{"bytecode":{"linkReferences":{},"object":"60806040523480156200001157600080fd5b5060405162000d2938038062000d29833981810160405281019062000037919062000351565b60005b8151811015620000ce5760006040518060400160405280848481518110620000675762000066620003a2565b5b6020026020010151815260200160008152509080600181540180825580915050600190039060005260206000209060020201600090919091909150600082015181600001556020820151816001015550508080620000c5906200040a565b9150506200003a565b50600160048190555060006001908054620000eb929190620000f3565b505062000457565b828054828255906000526020600020906002028101928215620001515760005260206000209160020282015b828111156200015057828260008201548160000155600182015481600101555050916002019190600201906200011f565b5b50905062000160919062000164565b5090565b5b80821115620001895760008082016000905560018201600090555060020162000165565b5090565b6000604051905090565b600080fd5b600080fd5b600080fd5b6000601f19601f8301169050919050565b7f4e487b7100000000000000000000000000000000000000000000000000000000600052604160045260246000fd5b620001f182620001a6565b810181811067ffffffffffffffff82111715620002135762000212620001b7565b5b80604052505050565b6000620002286200018d565b9050620002368282620001e6565b919050565b600067ffffffffffffffff821115620002595762000258620001b7565b5b602082029050602081019050919050565b600080fd5b6000819050919050565b62000284816200026f565b81146200029057600080fd5b50565b600081519050620002a48162000279565b92915050565b6000620002c1620002bb846200023b565b6200021c565b90508083825260208201905060208402830185811115620002e757620002e66200026a565b5b835b81811015620003145780620002ff888262000293565b845260208401935050602081019050620002e9565b5050509392505050565b600082601f830112620003365762000335620001a1565b5b815162000348848260208601620002aa565b91505092915050565b6000602082840312156200036a576200036962000197565b5b600082015167ffffffffffffffff8111156200038b576200038a6200019c565b5b62000399848285016200031e565b91505092915050565b7f4e487b7100000000000000000000000000000000000000000000000000000000600052603260045260246000fd5b7f4e487b7100000000000000000000000000000000000000000000000000000000600052601160045260246000fd5b6000819050919050565b6000620004178262000400565b91507fffffffffffffffffffffffffffffffffffffffffffffffffffffffffffffffff82036200044c576200044b620003d1565b5b600182019050919050565b6108c280620004676000396000f3fe608060405234801561001057600080fd5b50600436106100885760003560e01c80634c9841851161005b5780634c984185146101045780637058201e14610122578063c06d634414610140578063e4420c351461017157610088565b8063013cf08b1461008d578063214d84b8146100be5780632de2c5ac146100c857806331b8f1e5146100e6575b600080fd5b6100a760048036038101906100a29190610623565b6101a1565b6040516100b5929190610678565b60405180910390f35b6100c66101d5565b005b6100d0610202565b6040516100dd91906106bc565b60405180910390f35b6100ee610212565b6040516100fb91906106d7565b60405180910390f35b61010c610218565b60405161011991906106d7565b60405180910390f35b61012a61021e565b60405161013791906106d7565b60405180910390f35b61015a60048036038101906101559190610623565b610224565b604051610168929190610678565b60405180910390f35b61018b60048036038101906101869190610623565b610258565b60405161019891906106bc565b60405180910390f35b600081815481106101b157600080fd5b90600052602060002090600202016000915090508060000154908060010154905082565b600060028190555060006003819055506001600481905550600060019080546101ff929190610555565b50565b6000808054905060035414905090565b60045481565b60025481565b60035481565b6001818154811061023457600080fd5b90600052602060002090600202016000915090508060000154908060010154905082565b6000806000905061029e6040518060400160405280600481526020017f537465700000000000000000000000000000000000000000000000000000000081525082610490565b5b6001805490506003541015610472578281106102bf57600091505061048b565b600180549050600454106102fb5760016004819055506002546001805490506102e89190610721565b600381905550600060028190555061045f565b600060018060045461030d9190610721565b8154811061031e5761031d610755565b5b906000526020600020906002020160405180604001604052908160008201548152602001600182015481525050905060016004548154811061036357610362610755565b5b90600052602060002090600202016000015460001c816000015160001c11156104455760016004548154811061039c5761039b610755565b5b90600052602060002090600202016001806004546103ba9190610721565b815481106103cb576103ca610755565b5b906000526020600020906002020160008201548160000155600182015481600101559050508060016004548154811061040757610406610755565b5b906000526020600020906002020160008201518160000155602082015181600101559050506002600081548092919061043f90610784565b91905055505b6004600081548092919061045890610784565b9190505550505b808061046a90610784565b91505061029f565b60016000908054610484929190610555565b5060019150505b919050565b61052882826040516024016104a692919061085c565b6040516020818303038152906040527fb60e72cc000000000000000000000000000000000000000000000000000000007bffffffffffffffffffffffffffffffffffffffffffffffffffffffff19166020820180517bffffffffffffffffffffffffffffffffffffffffffffffffffffffff838183161783525050505061052c565b5050565b60008151905060006a636f6e736f6c652e6c6f679050602083016000808483855afa5050505050565b8280548282559060005260206000209060020281019282156105b05760005260206000209160020282015b828111156105af5782826000820154816000015560018201548160010155505091600201919060020190610580565b5b5090506105bd91906105c1565b5090565b5b808211156105e4576000808201600090556001820160009055506002016105c2565b5090565b600080fd5b6000819050919050565b610600816105ed565b811461060b57600080fd5b50565b60008135905061061d816105f7565b92915050565b600060208284031215610639576106386105e8565b5b60006106478482850161060e565b91505092915050565b6000819050919050565b61066381610650565b82525050565b610672816105ed565b82525050565b600060408201905061068d600083018561065a565b61069a6020830184610669565b9392505050565b60008115159050919050565b6106b6816106a1565b82525050565b60006020820190506106d160008301846106ad565b92915050565b60006020820190506106ec6000830184610669565b92915050565b7f4e487b7100000000000000000000000000000000000000000000000000000000600052601160045260246000fd5b600061072c826105ed565b9150610737836105ed565b925082820390508181111561074f5761074e6106f2565b5b92915050565b7f4e487b7100000000000000000000000000000000000000000000000000000000600052603260045260246000fd5b600061078f826105ed565b91507fffffffffffffffffffffffffffffffffffffffffffffffffffffffffffffffff82036107c1576107c06106f2565b5b600182019050919050565b600081519050919050565b600082825260208201905092915050565b60005b838110156108065780820151818401526020810190506107eb565b60008484015250505050565b6000601f19601f8301169050919050565b600061082e826107cc565b61083881856107d7565b93506108488185602086016107e8565b61085181610812565b840191505092915050565b600060408201905081810360008301526108768185610823565b90506108856020830184610669565b939250505056fea2646970667358221220759608b5f44619bdf6d746aad14f7da64094c7b5cd313aaf1c6bf2282a69b9df64736f6c63430008110033","opcodes":"PUSH1 0x80 PUSH1 0x40 MSTORE CALLVALUE DUP1 ISZERO PUSH3 0x11 JUMPI PUSH1 0x0 DUP1 REVERT JUMPDEST POP PUSH1 0x40 MLOAD PUSH3 0xD29 CODESIZE SUB DUP1 PUSH3 0xD29 DUP4 CODECOPY DUP2 DUP2 ADD PUSH1 0x40 MSTORE DUP2 ADD SWAP1 PUSH3 0x37 SWAP2 SWAP1 PUSH3 0x351 JUMP JUMPDEST PUSH1 0x0 JUMPDEST DUP2 MLOAD DUP2 LT ISZERO PUSH3 0xCE JUMPI PUSH1 0x0 PUSH1 0x40 MLOAD DUP1 PUSH1 0x40 ADD PUSH1 0x40 MSTORE DUP1 DUP5 DUP5 DUP2 MLOAD DUP2 LT PUSH3 0x67 JUMPI PUSH3 0x66 PUSH3 0x3A2 JUMP JUMPDEST JUMPDEST PUSH1 0x20 MUL PUSH1 0x20 ADD ADD MLOAD DUP2 MSTORE PUSH1 0x20 ADD PUSH1 0x0 DUP2 MSTORE POP SWAP1 DUP1 PUSH1 0x1 DUP2 SLOAD ADD DUP1 DUP3 SSTORE DUP1 SWAP2 POP POP PUSH1 0x1 SWAP1 SUB SWAP1 PUSH1 0x0 MSTORE PUSH1 0x20 PUSH1 0x0 KECCAK256 SWAP1 PUSH1 0x2 MUL ADD PUSH1 0x0 SWAP1 SWAP2 SWAP1 SWAP2 SWAP1 SWAP2 POP PUSH1 0x0 DUP3 ADD MLOAD DUP2 PUSH1 0x0 ADD SSTORE PUSH1 0x20 DUP3 ADD MLOAD DUP2 PUSH1 0x1 ADD SSTORE POP POP DUP1 DUP1 PUSH3 0xC5 SWAP1 PUSH3 0x40A JUMP JUMPDEST SWAP2 POP POP PUSH3 0x3A JUMP JUMPDEST POP PUSH1 0x1 PUSH1 0x4 DUP2 SWAP1 SSTORE POP PUSH1 0x0 PUSH1 0x1 SWAP1 DUP1 SLOAD PUSH3 0xEB SWAP3 SWAP2 SWAP1 PUSH3 0xF3 JUMP JUMPDEST POP POP PUSH3 0x457 JUMP JUMPDEST DUP3 DUP1 SLOAD DUP3 DUP3 SSTORE SWAP1 PUSH1 0x0 MSTORE PUSH1 0x20 PUSH1 0x0 KECCAK256 SWAP1 PUSH1 0x2 MUL DUP2 ADD SWAP3 DUP3 ISZERO PUSH3 0x151 JUMPI PUSH1 0x0 MSTORE PUSH1 0x20 PUSH1 0x0 KECCAK256 SWAP2 PUSH1 0x2 MUL DUP3 ADD JUMPDEST DUP3 DUP2 GT ISZERO PUSH3 0x150 JUMPI DUP3 DUP3 PUSH1 0x0 DUP3 ADD SLOAD DUP2 PUSH1 0x0 ADD SSTORE PUSH1 0x1 DUP3 ADD SLOAD DUP2 PUSH1 0x1 ADD SSTORE POP POP SWAP2 PUSH1 0x2 ADD SWAP2 SWAP1 PUSH1 0x2 ADD SWAP1 PUSH3 0x11F JUMP JUMPDEST JUMPDEST POP SWAP1 POP PUSH3 0x160 SWAP2 SWAP1 PUSH3 0x164 JUMP JUMPDEST POP SWAP1 JUMP JUMPDEST JUMPDEST DUP1 DUP3 GT ISZERO PUSH3 0x189 JUMPI PUSH1 0x0 DUP1 DUP3 ADD PUSH1 0x0 SWAP1 SSTORE PUSH1 0x1 DUP3 ADD PUSH1 0x0 SWAP1 SSTORE POP PUSH1 0x2 ADD PUSH3 0x165 JUMP JUMPDEST POP SWAP1 JUMP JUMPDEST PUSH1 0x0 PUSH1 0x40 MLOAD SWAP1 POP SWAP1 JUMP JUMPDEST PUSH1 0x0 DUP1 REVERT JUMPDEST PUSH1 0x0 DUP1 REVERT JUMPDEST PUSH1 0x0 DUP1 REVERT JUMPDEST PUSH1 0x0 PUSH1 0x1F NOT PUSH1 0x1F DUP4 ADD AND SWAP1 POP SWAP2 SWAP1 POP JUMP JUMPDEST PUSH32 0x4E487B7100000000000000000000000000000000000000000000000000000000 PUSH1 0x0 MSTORE PUSH1 0x41 PUSH1 0x4 MSTORE PUSH1 0x24 PUSH1 0x0 REVERT JUMPDEST PUSH3 0x1F1 DUP3 PUSH3 0x1A6 JUMP JUMPDEST DUP2 ADD DUP2 DUP2 LT PUSH8 0xFFFFFFFFFFFFFFFF DUP3 GT OR ISZERO PUSH3 0x213 JUMPI PUSH3 0x212 PUSH3 0x1B7 JUMP JUMPDEST JUMPDEST DUP1 PUSH1 0x40 MSTORE POP POP POP JUMP JUMPDEST PUSH1 0x0 PUSH3 0x228 PUSH3 0x18D JUMP JUMPDEST SWAP1 POP PUSH3 0x236 DUP3 DUP3 PUSH3 0x1E6 JUMP JUMPDEST SWAP2 SWAP1 POP JUMP JUMPDEST PUSH1 0x0 PUSH8 0xFFFFFFFFFFFFFFFF DUP3 GT ISZERO PUSH3 0x259 JUMPI PUSH3 0x258 PUSH3 0x1B7 JUMP JUMPDEST JUMPDEST PUSH1 0x20 DUP3 MUL SWAP1 POP PUSH1 0x20 DUP2 ADD SWAP1 POP SWAP2 SWAP1 POP JUMP JUMPDEST PUSH1 0x0 DUP1 REVERT JUMPDEST PUSH1 0x0 DUP2 SWAP1 POP SWAP2 SWAP1 POP JUMP JUMPDEST PUSH3 0x284 DUP2 PUSH3 0x26F JUMP JUMPDEST DUP2 EQ PUSH3 0x290 JUMPI PUSH1 0x0 DUP1 REVERT JUMPDEST POP JUMP JUMPDEST PUSH1 0x0 DUP2 MLOAD SWAP1 POP PUSH3 0x2A4 DUP2 PUSH3 0x279 JUMP JUMPDEST SWAP3 SWAP2 POP POP JUMP JUMPDEST PUSH1 0x0 PUSH3 0x2C1 PUSH3 0x2BB DUP5 PUSH3 0x23B JUMP JUMPDEST PUSH3 0x21C JUMP JUMPDEST SWAP1 POP DUP1 DUP4 DUP3 MSTORE PUSH1 0x20 DUP3 ADD SWAP1 POP PUSH1 0x20 DUP5 MUL DUP4 ADD DUP6 DUP2 GT ISZERO PUSH3 0x2E7 JUMPI PUSH3 0x2E6 PUSH3 0x26A JUMP JUMPDEST JUMPDEST DUP4 JUMPDEST DUP2 DUP2 LT ISZERO PUSH3 0x314 JUMPI DUP1 PUSH3 0x2FF DUP9 DUP3 PUSH3 0x293 JUMP JUMPDEST DUP5 MSTORE PUSH1 0x20 DUP5 ADD SWAP4 POP POP PUSH1 0x20 DUP2 ADD SWAP1 POP PUSH3 0x2E9 JUMP JUMPDEST POP POP POP SWAP4 SWAP3 POP POP POP JUMP JUMPDEST PUSH1 0x0 DUP3 PUSH1 0x1F DUP4 ADD SLT PUSH3 0x336 JUMPI PUSH3 0x335 PUSH3 0x1A1 JUMP JUMPDEST JUMPDEST DUP2 MLOAD PUSH3 0x348 DUP5 DUP3 PUSH1 0x20 DUP7 ADD PUSH3 0x2AA JUMP JUMPDEST SWAP2 POP POP SWAP3 SWAP2 POP POP JUMP JUMPDEST PUSH1 0x0 PUSH1 0x20 DUP3 DUP5 SUB SLT ISZERO PUSH3 0x36A JUMPI PUSH3 0x369 PUSH3 0x197 JUMP JUMPDEST JUMPDEST PUSH1 0x0 DUP3 ADD MLOAD PUSH8 0xFFFFFFFFFFFFFFFF DUP2 GT ISZERO PUSH3 0x38B JUMPI PUSH3 0x38A PUSH3 0x19C JUMP JUMPDEST JUMPDEST PUSH3 0x399 DUP5 DUP3 DUP6 ADD PUSH3 0x31E JUMP JUMPDEST SWAP2 POP POP SWAP3 SWAP2 POP POP JUMP JUMPDEST PUSH32 0x4E487B7100000000000000000000000000000000000000000000000000000000 PUSH1 0x0 MSTORE PUSH1 0x32 PUSH1 0x4 MSTORE PUSH1 0x24 PUSH1 0x0 REVERT JUMPDEST PUSH32 0x4E487B7100000000000000000000000000000000000000000000000000000000 PUSH1 0x0 MSTORE PUSH1 0x11 PUSH1 0x4 MSTORE PUSH1 0x24 PUSH1 0x0 REVERT JUMPDEST PUSH1 0x0 DUP2 SWAP1 POP SWAP2 SWAP1 POP JUMP JUMPDEST PUSH1 0x0 PUSH3 0x417 DUP3 PUSH3 0x400 JUMP JUMPDEST SWAP2 POP PUSH32 0xFFFFFFFFFFFFFFFFFFFFFFFFFFFFFFFFFFFFFFFFFFFFFFFFFFFFFFFFFFFFFFFF DUP3 SUB PUSH3 0x44C JUMPI PUSH3 0x44B PUSH3 0x3D1 JUMP JUMPDEST JUMPDEST PUSH1 0x1 DUP3 ADD SWAP1 POP SWAP2 SWAP1 POP JUMP JUMPDEST PUSH2 0x8C2 DUP1 PUSH3 0x467 PUSH1 0x0 CODECOPY PUSH1 0x0 RETURN INVALID PUSH1 0x80 PUSH1 0x40 MSTORE CALLVALUE DUP1 ISZERO PUSH2 0x10 JUMPI PUSH1 0x0 DUP1 REVERT JUMPDEST POP PUSH1 0x4 CALLDATASIZE LT PUSH2 0x88 JUMPI PUSH1 0x0 CALLDATALOAD PUSH1 0xE0 SHR DUP1 PUSH4 0x4C984185 GT PUSH2 0x5B JUMPI DUP1 PUSH4 0x4C984185 EQ PUSH2 0x104 JUMPI DUP1 PUSH4 0x7058201E EQ PUSH2 0x122 JUMPI DUP1 PUSH4 0xC06D6344 EQ PUSH2 0x140 JUMPI DUP1 PUSH4 0xE4420C35 EQ PUSH2 0x171 JUMPI PUSH2 0x88 JUMP JUMPDEST DUP1 PUSH4 0x13CF08B EQ PUSH2 0x8D JUMPI DUP1 PUSH4 0x214D84B8 EQ PUSH2 0xBE JUMPI DUP1 PUSH4 0x2DE2C5AC EQ PUSH2 0xC8 JUMPI DUP1 PUSH4 0x31B8F1E5 EQ PUSH2 0xE6 JUMPI JUMPDEST PUSH1 0x0 DUP1 REVERT JUMPDEST PUSH2 0xA7 PUSH1 0x4 DUP1 CALLDATASIZE SUB DUP2 ADD SWAP1 PUSH2 0xA2 SWAP2 SWAP1 PUSH2 0x623 JUMP JUMPDEST PUSH2 0x1A1 JUMP JUMPDEST PUSH1 0x40 MLOAD PUSH2 0xB5 SWAP3 SWAP2 SWAP1 PUSH2 0x678 JUMP JUMPDEST PUSH1 0x40 MLOAD DUP1 SWAP2 SUB SWAP1 RETURN JUMPDEST PUSH2 0xC6 PUSH2 0x1D5 JUMP JUMPDEST STOP JUMPDEST PUSH2 0xD0 PUSH2 0x202 JUMP JUMPDEST PUSH1 0x40 MLOAD PUSH2 0xDD SWAP2 SWAP1 PUSH2 0x6BC JUMP JUMPDEST PUSH1 0x40 MLOAD DUP1 SWAP2 SUB SWAP1 RETURN JUMPDEST PUSH2 0xEE PUSH2 0x212 JUMP JUMPDEST PUSH1 0x40 MLOAD PUSH2 0xFB SWAP2 SWAP1 PUSH2 0x6D7 JUMP JUMPDEST PUSH1 0x40 MLOAD DUP1 SWAP2 SUB SWAP1 RETURN JUMPDEST PUSH2 0x10C PUSH2 0x218 JUMP JUMPDEST PUSH1 0x40 MLOAD PUSH2 0x119 SWAP2 SWAP1 PUSH2 0x6D7 JUMP JUMPDEST PUSH1 0x40 MLOAD DUP1 SWAP2 SUB SWAP1 RETURN JUMPDEST PUSH2 0x12A PUSH2 0x21E JUMP JUMPDEST PUSH1 0x40 MLOAD PUSH2 0x137 SWAP2 SWAP1 PUSH2 0x6D7 JUMP JUMPDEST PUSH1 0x40 MLOAD DUP1 SWAP2 SUB SWAP1 RETURN JUMPDEST PUSH2 0x15A PUSH1 0x4 DUP1 CALLDATASIZE SUB DUP2 ADD SWAP1 PUSH2 0x155 SWAP2 SWAP1 PUSH2 0x623 JUMP JUMPDEST PUSH2 0x224 JUMP JUMPDEST PUSH1 0x40 MLOAD PUSH2 0x168 SWAP3 SWAP2 SWAP1 PUSH2 0x678 JUMP JUMPDEST PUSH1 0x40 MLOAD DUP1 SWAP2 SUB SWAP1 RETURN JUMPDEST PUSH2 0x18B PUSH1 0x4 DUP1 CALLDATASIZE SUB DUP2 ADD SWAP1 PUSH2 0x186 SWAP2 SWAP1 PUSH2 0x623 JUMP JUMPDEST PUSH2 0x258 JUMP JUMPDEST PUSH1 0x40 MLOAD PUSH2 0x198 SWAP2 SWAP1 PUSH2 0x6BC JUMP JUMPDEST PUSH1 0x40 MLOAD DUP1 SWAP2 SUB SWAP1 RETURN JUMPDEST PUSH1 0x0 DUP2 DUP2 SLOAD DUP2 LT PUSH2 0x1B1 JUMPI PUSH1 0x0 DUP1 REVERT JUMPDEST SWAP1 PUSH1 0x0 MSTORE PUSH1 0x20 PUSH1 0x0 KECCAK256 SWAP1 PUSH1 0x2 MUL ADD PUSH1 0x0 SWAP2 POP SWAP1 POP DUP1 PUSH1 0x0 ADD SLOAD SWAP1 DUP1 PUSH1 0x1 ADD SLOAD SWAP1 POP DUP3 JUMP JUMPDEST PUSH1 0x0 PUSH1 0x2 DUP2 SWAP1 SSTORE POP PUSH1 0x0 PUSH1 0x3 DUP2 SWAP1 SSTORE POP PUSH1 0x1 PUSH1 0x4 DUP2 SWAP1 SSTORE POP PUSH1 0x0 PUSH1 0x1 SWAP1 DUP1 SLOAD PUSH2 0x1FF SWAP3 SWAP2 SWAP1 PUSH2 0x555 JUMP JUMPDEST POP JUMP JUMPDEST PUSH1 0x0 DUP1 DUP1 SLOAD SWAP1 POP PUSH1 0x3 SLOAD EQ SWAP1 POP SWAP1 JUMP JUMPDEST PUSH1 0x4 SLOAD DUP2 JUMP JUMPDEST PUSH1 0x2 SLOAD DUP2 JUMP JUMPDEST PUSH1 0x3 SLOAD DUP2 JUMP JUMPDEST PUSH1 0x1 DUP2 DUP2 SLOAD DUP2 LT PUSH2 0x234 JUMPI PUSH1 0x0 DUP1 REVERT JUMPDEST SWAP1 PUSH1 0x0 MSTORE PUSH1 0x20 PUSH1 0x0 KECCAK256 SWAP1 PUSH1 0x2 MUL ADD PUSH1 0x0 SWAP2 POP SWAP1 POP DUP1 PUSH1 0x0 ADD SLOAD SWAP1 DUP1 PUSH1 0x1 ADD SLOAD SWAP1 POP DUP3 JUMP JUMPDEST PUSH1 0x0 DUP1 PUSH1 0x0 SWAP1 POP PUSH2 0x29E PUSH1 0x40 MLOAD DUP1 PUSH1 0x40 ADD PUSH1 0x40 MSTORE DUP1 PUSH1 0x4 DUP2 MSTORE PUSH1 0x20 ADD PUSH32 0x5374657000000000000000000000000000000000000000000000000000000000 DUP2 MSTORE POP DUP3 PUSH2 0x490 JUMP JUMPDEST JUMPDEST PUSH1 0x1 DUP1 SLOAD SWAP1 POP PUSH1 0x3 SLOAD LT ISZERO PUSH2 0x472 JUMPI DUP3 DUP2 LT PUSH2 0x2BF JUMPI PUSH1 0x0 SWAP2 POP POP PUSH2 0x48B JUMP JUMPDEST PUSH1 0x1 DUP1 SLOAD SWAP1 POP PUSH1 0x4 SLOAD LT PUSH2 0x2FB JUMPI PUSH1 0x1 PUSH1 0x4 DUP2 SWAP1 SSTORE POP PUSH1 0x2 SLOAD PUSH1 0x1 DUP1 SLOAD SWAP1 POP PUSH2 0x2E8 SWAP2 SWAP1 PUSH2 0x721 JUMP JUMPDEST PUSH1 0x3 DUP2 SWAP1 SSTORE POP PUSH1 0x0 PUSH1 0x2 DUP2 SWAP1 SSTORE POP PUSH2 0x45F JUMP JUMPDEST PUSH1 0x0 PUSH1 0x1 DUP1 PUSH1 0x4 SLOAD PUSH2 0x30D SWAP2 SWAP1 PUSH2 0x721 JUMP JUMPDEST DUP2 SLOAD DUP2 LT PUSH2 0x31E JUMPI PUSH2 0x31D PUSH2 0x755 JUMP JUMPDEST JUMPDEST SWAP1 PUSH1 0x0 MSTORE PUSH1 0x20 PUSH1 0x0 KECCAK256 SWAP1 PUSH1 0x2 MUL ADD PUSH1 0x40 MLOAD DUP1 PUSH1 0x40 ADD PUSH1 0x40 MSTORE SWAP1 DUP2 PUSH1 0x0 DUP3 ADD SLOAD DUP2 MSTORE PUSH1 0x20 ADD PUSH1 0x1 DUP3 ADD SLOAD DUP2 MSTORE POP POP SWAP1 POP PUSH1 0x1 PUSH1 0x4 SLOAD DUP2 SLOAD DUP2 LT PUSH2 0x363 JUMPI PUSH2 0x362 PUSH2 0x755 JUMP JUMPDEST JUMPDEST SWAP1 PUSH1 0x0 MSTORE PUSH1 0x20 PUSH1 0x0 KECCAK256 SWAP1 PUSH1 0x2 MUL ADD PUSH1 0x0 ADD SLOAD PUSH1 0x0 SHR DUP2 PUSH1 0x0 ADD MLOAD PUSH1 0x0 SHR GT ISZERO PUSH2 0x445 JUMPI PUSH1 0x1 PUSH1 0x4 SLOAD DUP2 SLOAD DUP2 LT PUSH2 0x39C JUMPI PUSH2 0x39B PUSH2 0x755 JUMP JUMPDEST JUMPDEST SWAP1 PUSH1 0x0 MSTORE PUSH1 0x20 PUSH1 0x0 KECCAK256 SWAP1 PUSH1 0x2 MUL ADD PUSH1 0x1 DUP1 PUSH1 0x4 SLOAD PUSH2 0x3BA SWAP2 SWAP1 PUSH2 0x721 JUMP JUMPDEST DUP2 SLOAD DUP2 LT PUSH2 0x3CB JUMPI PUSH2 0x3CA PUSH2 0x755 JUMP JUMPDEST JUMPDEST SWAP1 PUSH1 0x0 MSTORE PUSH1 0x20 PUSH1 0x0 KECCAK256 SWAP1 PUSH1 0x2 MUL ADD PUSH1 0x0 DUP3 ADD SLOAD DUP2 PUSH1 0x0 ADD SSTORE PUSH1 0x1 DUP3 ADD SLOAD DUP2 PUSH1 0x1 ADD SSTORE SWAP1 POP POP DUP1 PUSH1 0x1 PUSH1 0x4 SLOAD DUP2 SLOAD DUP2 LT PUSH2 0x407 JUMPI PUSH2 0x406 PUSH2 0x755 JUMP JUMPDEST JUMPDEST SWAP1 PUSH1 0x0 MSTORE PUSH1 0x20 PUSH1 0x0 KECCAK256 SWAP1 PUSH1 0x2 MUL ADD PUSH1 0x0 DUP3 ADD MLOAD DUP2 PUSH1 0x0 ADD SSTORE PUSH1 0x20 DUP3 ADD MLOAD DUP2 PUSH1 0x1 ADD SSTORE SWAP1 POP POP PUSH1 0x2 PUSH1 0x0 DUP2 SLOAD DUP1 SWAP3 SWAP2 SWAP1 PUSH2 0x43F SWAP1 PUSH2 0x784 JUMP JUMPDEST SWAP2 SWAP1 POP SSTORE POP JUMPDEST PUSH1 0x4 PUSH1 0x0 DUP2 SLOAD DUP1 SWAP3 SWAP2 SWAP1 PUSH2 0x458 SWAP1 PUSH2 0x784 JUMP JUMPDEST SWAP2 SWAP1 POP SSTORE POP POP JUMPDEST DUP1 DUP1 PUSH2 0x46A SWAP1 PUSH2 0x784 JUMP JUMPDEST SWAP2 POP POP PUSH2 0x29F JUMP JUMPDEST PUSH1 0x1 PUSH1 0x0 SWAP1 DUP1 SLOAD PUSH2 0x484 SWAP3 SWAP2 SWAP1 PUSH2 0x555 JUMP JUMPDEST POP PUSH1 0x1 SWAP2 POP POP JUMPDEST SWAP2 SWAP1 POP JUMP JUMPDEST PUSH2 0x528 DUP3 DUP3 PUSH1 0x40 MLOAD PUSH1 0x24 ADD PUSH2 0x4A6 SWAP3 SWAP2 SWAP1 PUSH2 0x85C JUMP JUMPDEST PUSH1 0x40 MLOAD PUSH1 0x20 DUP2 DUP4 SUB SUB DUP2 MSTORE SWAP1 PUSH1 0x40 MSTORE PUSH32 0xB60E72CC00000000000000000000000000000000000000000000000000000000 PUSH28 0xFFFFFFFFFFFFFFFFFFFFFFFFFFFFFFFFFFFFFFFFFFFFFFFFFFFFFFFF NOT AND PUSH1 0x20 DUP3 ADD DUP1 MLOAD PUSH28 0xFFFFFFFFFFFFFFFFFFFFFFFFFFFFFFFFFFFFFFFFFFFFFFFFFFFFFFFF DUP4 DUP2 DUP4 AND OR DUP4 MSTORE POP POP POP POP PUSH2 0x52C JUMP JUMPDEST POP POP JUMP JUMPDEST PUSH1 0x0 DUP2 MLOAD SWAP1 POP PUSH1 0x0 PUSH11 0x636F6E736F6C652E6C6F67 SWAP1 POP PUSH1 0x20 DUP4 ADD PUSH1 0x0 DUP1 DUP5 DUP4 DUP6 GAS STATICCALL POP POP POP POP POP JUMP JUMPDEST DUP3 DUP1 SLOAD DUP3 DUP3 SSTORE SWAP1 PUSH1 0x0 MSTORE PUSH1 0x20 PUSH1 0x0 KECCAK256 SWAP1 PUSH1 0x2 MUL DUP2 ADD SWAP3 DUP3 ISZERO PUSH2 0x5B0 JUMPI PUSH1 0x0 MSTORE PUSH1 0x20 PUSH1 0x0 KECCAK256 SWAP2 PUSH1 0x2 MUL DUP3 ADD JUMPDEST DUP3 DUP2 GT ISZERO PUSH2 0x5AF JUMPI DUP3 DUP3 PUSH1 0x0 DUP3 ADD SLOAD DUP2 PUSH1 0x0 ADD SSTORE PUSH1 0x1 DUP3 ADD SLOAD DUP2 PUSH1 0x1 ADD SSTORE POP POP SWAP2 PUSH1 0x2 ADD SWAP2 SWAP1 PUSH1 0x2 ADD SWAP1 PUSH2 0x580 JUMP JUMPDEST JUMPDEST POP SWAP1 POP PUSH2 0x5BD SWAP2 SWAP1 PUSH2 0x5C1 JUMP JUMPDEST POP SWAP1 JUMP JUMPDEST JUMPDEST DUP1 DUP3 GT ISZERO PUSH2 0x5E4 JUMPI PUSH1 0x0 DUP1 DUP3 ADD PUSH1 0x0 SWAP1 SSTORE PUSH1 0x1 DUP3 ADD PUSH1 0x0 SWAP1 SSTORE POP PUSH1 0x2 ADD PUSH2 0x5C2 JUMP JUMPDEST POP SWAP1 JUMP JUMPDEST PUSH1 0x0 DUP1 REVERT JUMPDEST PUSH1 0x0 DUP2 SWAP1 POP SWAP2 SWAP1 POP JUMP JUMPDEST PUSH2 0x600 DUP2 PUSH2 0x5ED JUMP JUMPDEST DUP2 EQ PUSH2 0x60B JUMPI PUSH1 0x0 DUP1 REVERT JUMPDEST POP JUMP JUMPDEST PUSH1 0x0 DUP2 CALLDATALOAD SWAP1 POP PUSH2 0x61D DUP2 PUSH2 0x5F7 JUMP JUMPDEST SWAP3 SWAP2 POP POP JUMP JUMPDEST PUSH1 0x0 PUSH1 0x20 DUP3 DUP5 SUB SLT ISZERO PUSH2 0x639 JUMPI PUSH2 0x638 PUSH2 0x5E8 JUMP JUMPDEST JUMPDEST PUSH1 0x0 PUSH2 0x647 DUP5 DUP3 DUP6 ADD PUSH2 0x60E JUMP JUMPDEST SWAP2 POP POP SWAP3 SWAP2 POP POP JUMP JUMPDEST PUSH1 0x0 DUP2 SWAP1 POP SWAP2 SWAP1 POP JUMP JUMPDEST PUSH2 0x663 DUP2 PUSH2 0x650 JUMP JUMPDEST DUP3 MSTORE POP POP JUMP JUMPDEST PUSH2 0x672 DUP2 PUSH2 0x5ED JUMP JUMPDEST DUP3 MSTORE POP POP JUMP JUMPDEST PUSH1 0x0 PUSH1 0x40 DUP3 ADD SWAP1 POP PUSH2 0x68D PUSH1 0x0 DUP4 ADD DUP6 PUSH2 0x65A JUMP JUMPDEST PUSH2 0x69A PUSH1 0x20 DUP4 ADD DUP5 PUSH2 0x669 JUMP JUMPDEST SWAP4 SWAP3 POP POP POP JUMP JUMPDEST PUSH1 0x0 DUP2 ISZERO ISZERO SWAP1 POP SWAP2 SWAP1 POP JUMP JUMPDEST PUSH2 0x6B6 DUP2 PUSH2 0x6A1 JUMP JUMPDEST DUP3 MSTORE POP POP JUMP JUMPDEST PUSH1 0x0 PUSH1 0x20 DUP3 ADD SWAP1 POP PUSH2 0x6D1 PUSH1 0x0 DUP4 ADD DUP5 PUSH2 0x6AD JUMP JUMPDEST SWAP3 SWAP2 POP POP JUMP JUMPDEST PUSH1 0x0 PUSH1 0x20 DUP3 ADD SWAP1 POP PUSH2 0x6EC PUSH1 0x0 DUP4 ADD DUP5 PUSH2 0x669 JUMP JUMPDEST SWAP3 SWAP2 POP POP JUMP JUMPDEST PUSH32 0x4E487B7100000000000000000000000000000000000000000000000000000000 PUSH1 0x0 MSTORE PUSH1 0x11 PUSH1 0x4 MSTORE PUSH1 0x24 PUSH1 0x0 REVERT JUMPDEST PUSH1 0x0 PUSH2 0x72C DUP3 PUSH2 0x5ED JUMP JUMPDEST SWAP2 POP PUSH2 0x737 DUP4 PUSH2 0x5ED JUMP JUMPDEST SWAP3 POP DUP3 DUP3 SUB SWAP1 POP DUP2 DUP2 GT ISZERO PUSH2 0x74F JUMPI PUSH2 0x74E PUSH2 0x6F2 JUMP JUMPDEST JUMPDEST SWAP3 SWAP2 POP POP JUMP JUMPDEST PUSH32 0x4E487B7100000000000000000000000000000000000000000000000000000000 PUSH1 0x0 MSTORE PUSH1 0x32 PUSH1 0x4 MSTORE PUSH1 0x24 PUSH1 0x0 REVERT JUMPDEST PUSH1 0x0 PUSH2 0x78F DUP3 PUSH2 0x5ED JUMP JUMPDEST SWAP2 POP PUSH32 0xFFFFFFFFFFFFFFFFFFFFFFFFFFFFFFFFFFFFFFFFFFFFFFFFFFFFFFFFFFFFFFFF DUP3 SUB PUSH2 0x7C1 JUMPI PUSH2 0x7C0 PUSH2 0x6F2 JUMP JUMPDEST JUMPDEST PUSH1 0x1 DUP3 ADD SWAP1 POP SWAP2 SWAP1 POP JUMP JUMPDEST PUSH1 0x0 DUP2 MLOAD SWAP1 POP SWAP2 SWAP1 POP JUMP JUMPDEST PUSH1 0x0 DUP3 DUP3 MSTORE PUSH1 0x20 DUP3 ADD SWAP1 POP SWAP3 SWAP2 POP POP JUMP JUMPDEST PUSH1 0x0 JUMPDEST DUP4 DUP2 LT ISZERO PUSH2 0x806 JUMPI DUP1 DUP3 ADD MLOAD DUP2 DUP5 ADD MSTORE PUSH1 0x20 DUP2 ADD SWAP1 POP PUSH2 0x7EB JUMP JUMPDEST PUSH1 0x0 DUP5 DUP5 ADD MSTORE POP POP POP POP JUMP JUMPDEST PUSH1 0x0 PUSH1 0x1F NOT PUSH1 0x1F DUP4 ADD AND SWAP1 POP SWAP2 SWAP1 POP JUMP JUMPDEST PUSH1 0x0 PUSH2 0x82E DUP3 PUSH2 0x7CC JUMP JUMPDEST PUSH2 0x838 DUP2 DUP6 PUSH2 0x7D7 JUMP JUMPDEST SWAP4 POP PUSH2 0x848 DUP2 DUP6 PUSH1 0x20 DUP7 ADD PUSH2 0x7E8 JUMP JUMPDEST PUSH2 0x851 DUP2 PUSH2 0x812 JUMP JUMPDEST DUP5 ADD SWAP2 POP POP SWAP3 SWAP2 POP POP JUMP JUMPDEST PUSH1 0x0 PUSH1 0x40 DUP3 ADD SWAP1 POP DUP2 DUP2 SUB PUSH1 0x0 DUP4 ADD MSTORE PUSH2 0x876 DUP2 DUP6 PUSH2 0x823 JUMP JUMPDEST SWAP1 POP PUSH2 0x885 PUSH1 0x20 DUP4 ADD DUP5 PUSH2 0x669 JUMP JUMPDEST SWAP4 SWAP3 POP POP POP JUMP INVALID LOG2 PUSH5 0x6970667358 0x22 SLT KECCAK256 PUSH22 0x9608B5F44619BDF6D746AAD14F7DA64094C7B5CD313A 0xAF SHR PUSH12 0xF2282A69B9DF64736F6C6343 STOP ADDMOD GT STOP CALLER "},"methodIdentifiers":{"proposals(uint256)":"013cf08b","proposalsBeingSorted(uint256)":"c06d6344","restartSorting()":"214d84b8","savedIndex()":"31b8f1e5","sortProposals(uint256)":"e4420c35","sorted()":"2de2c5ac","sortedWords()":"7058201e","swaps()":"4c984185"}}}}}