{
  "_format": "hh-sol-artifact-1",
  "contractName": "PseudoRandom",
  "sourceName": "contracts/PseudoRandom.sol",
  "abi": [
    {
      "inputs": [
        {
          "internalType": "string",
          "name": "seed",
          "type": "string"
        }
      ],
      "name": "getCombinedRandomNumber",
      "outputs": [
        {
          "internalType": "uint256",
          "name": "pseudoRandomNumber",
          "type": "uint256"
        }
      ],
      "stateMutability": "view",
      "type": "function"
    },
    {
      "inputs": [
        {
          "internalType": "string",
          "name": "seed",
          "type": "string"
        }
      ],
      "name": "getRandomNumber",
      "outputs": [
        {
          "internalType": "uint256",
          "name": "pseudoRandomNumber",
          "type": "uint256"
        }
      ],
      "stateMutability": "view",
      "type": "function"
    },
    {
      "inputs": [
        {
          "internalType": "uint8",
          "name": "_v",
          "type": "uint8"
        },
        {
          "internalType": "bytes32",
          "name": "_r",
          "type": "bytes32"
        },
        {
          "internalType": "bytes32",
          "name": "_s",
          "type": "bytes32"
        }
      ],
      "name": "setSignature",
      "outputs": [],
      "stateMutability": "nonpayable",
      "type": "function"
    },
    {
      "inputs": [
        {
          "internalType": "string",
          "name": "message",
          "type": "string"
        },
        {
          "internalType": "uint8",
          "name": "v",
          "type": "uint8"
        },
        {
          "internalType": "bytes32",
          "name": "r",
          "type": "bytes32"
        },
        {
          "internalType": "bytes32",
          "name": "s",
          "type": "bytes32"
        }
      ],
      "name": "verifyString",
      "outputs": [
        {
          "internalType": "address",
          "name": "signer",
          "type": "address"
        }
      ],
      "stateMutability": "pure",
      "type": "function"
    }
  ],
  "bytecode": "0x608060405234801561001057600080fd5b50610ccb806100206000396000f3fe608060405234801561001057600080fd5b506004361061004c5760003560e01c80637457ec8b1461005157806382c389d614610081578063d2c3fbb71461009d578063d305843c146100cd575b600080fd5b61006b600480360381019061006691906105b3565b6100fd565b6040516100789190610619565b60405180910390f35b61009b600480360381019061009691906106a3565b61021f565b005b6100b760048036038101906100b29190610837565b61027b565b6040516100c491906108fb565b60405180910390f35b6100e760048036038101906100e291906105b3565b610427565b6040516100f49190610619565b60405180910390f35b60008061016b84848080601f016020809104026020016040519081016040528093929190818152602001838380828437600081840152601f19601f820116905080830192505050505050506000800160009054906101000a900460ff1660006001015460006002015461027b565b90508073ffffffffffffffffffffffffffffffffffffffff163373ffffffffffffffffffffffffffffffffffffffff16146101db576040517f08c379a00000000000000000000000000000000000000000000000000000000081526004016101d290610973565b60405180910390fd5b83836001436101ea91906109c2565b406040516020016101fd93929190610a47565b6040516020818303038152906040528051906020012060001c91505092915050565b60405180606001604052808460ff168152602001838152602001828152506000808201518160000160006101000a81548160ff021916908360ff1602179055506020820151816001015560408201518160020155905050505050565b6000806040518060400160405280602081526020017f19457468657265756d205369676e6564204d6573736167653a0a303030303030815250905060008087519050603983019150620f423f8111156102d357600080fd5b600080620186a090505b6000811461037757600081846102f39190610aa0565b90506000810361031b576000830361031a57600a826103129190610aa0565b9150506102dd565b5b828061032690610ad1565b93505081816103359190610b19565b8461034091906109c2565b9350600a8261034f9190610aa0565b915060308161035e9190610b5b565b9050848061036b90610ad1565b955050808553506102dd565b6000820361038857601b9150610398565b601a826103959190610b5b565b91505b8185526000858b6040516020016103b0929190610bf5565b6040516020818303038152906040528051906020012090506001818b8b8b604051600081526020016040526040516103eb9493929190610c37565b6020604051602081039080840390855afa15801561040d573d6000803e3d6000fd5b505050602060405103519650505050505050949350505050565b60008061049584848080601f016020809104026020016040519081016040528093929190818152602001838380828437600081840152601f19601f820116905080830192505050505050506000800160009054906101000a900460ff1660006001015460006002015461027b565b90508073ffffffffffffffffffffffffffffffffffffffff163373ffffffffffffffffffffffffffffffffffffffff1614610505576040517f08c379a00000000000000000000000000000000000000000000000000000000081526004016104fc90610973565b60405180910390fd5b8383604051602001610518929190610c7c565b6040516020818303038152906040528051906020012060001c91505092915050565b6000604051905090565b600080fd5b600080fd5b600080fd5b600080fd5b600080fd5b60008083601f8401126105735761057261054e565b5b8235905067ffffffffffffffff8111156105905761058f610553565b5b6020830191508360018202830111156105ac576105ab610558565b5b9250929050565b600080602083850312156105ca576105c9610544565b5b600083013567ffffffffffffffff8111156105e8576105e7610549565b5b6105f48582860161055d565b92509250509250929050565b6000819050919050565b61061381610600565b82525050565b600060208201905061062e600083018461060a565b92915050565b600060ff82169050919050565b61064a81610634565b811461065557600080fd5b50565b60008135905061066781610641565b92915050565b6000819050919050565b6106808161066d565b811461068b57600080fd5b50565b60008135905061069d81610677565b92915050565b6000806000606084860312156106bc576106bb610544565b5b60006106ca86828701610658565b93505060206106db8682870161068e565b92505060406106ec8682870161068e565b9150509250925092565b600080fd5b6000601f19601f8301169050919050565b7f4e487b7100000000000000000000000000000000000000000000000000000000600052604160045260246000fd5b610744826106fb565b810181811067ffffffffffffffff821117156107635761076261070c565b5b80604052505050565b600061077661053a565b9050610782828261073b565b919050565b600067ffffffffffffffff8211156107a2576107a161070c565b5b6107ab826106fb565b9050602081019050919050565b82818337600083830152505050565b60006107da6107d584610787565b61076c565b9050828152602081018484840111156107f6576107f56106f6565b5b6108018482856107b8565b509392505050565b600082601f83011261081e5761081d61054e565b5b813561082e8482602086016107c7565b91505092915050565b6000806000806080858703121561085157610850610544565b5b600085013567ffffffffffffffff81111561086f5761086e610549565b5b61087b87828801610809565b945050602061088c87828801610658565b935050604061089d8782880161068e565b92505060606108ae8782880161068e565b91505092959194509250565b600073ffffffffffffffffffffffffffffffffffffffff82169050919050565b60006108e5826108ba565b9050919050565b6108f5816108da565b82525050565b600060208201905061091060008301846108ec565b92915050565b600082825260208201905092915050565b7f496e76616c696420736565640000000000000000000000000000000000000000600082015250565b600061095d600c83610916565b915061096882610927565b602082019050919050565b6000602082019050818103600083015261098c81610950565b9050919050565b7f4e487b7100000000000000000000000000000000000000000000000000000000600052601160045260246000fd5b60006109cd82610600565b91506109d883610600565b92508282039050818111156109f0576109ef610993565b5b92915050565b600081905092915050565b6000610a0d83856109f6565b9350610a1a8385846107b8565b82840190509392505050565b6000819050919050565b610a41610a3c8261066d565b610a26565b82525050565b6000610a54828587610a01565b9150610a608284610a30565b602082019150819050949350505050565b7f4e487b7100000000000000000000000000000000000000000000000000000000600052601260045260246000fd5b6000610aab82610600565b9150610ab683610600565b925082610ac657610ac5610a71565b5b828204905092915050565b6000610adc82610600565b91507fffffffffffffffffffffffffffffffffffffffffffffffffffffffffffffffff8203610b0e57610b0d610993565b5b600182019050919050565b6000610b2482610600565b9150610b2f83610600565b9250828202610b3d81610600565b91508282048414831517610b5457610b53610993565b5b5092915050565b6000610b6682610600565b9150610b7183610600565b9250828201905080821115610b8957610b88610993565b5b92915050565b600081519050919050565b60005b83811015610bb8578082015181840152602081019050610b9d565b60008484015250505050565b6000610bcf82610b8f565b610bd981856109f6565b9350610be9818560208601610b9a565b80840191505092915050565b6000610c018285610bc4565b9150610c0d8284610bc4565b91508190509392505050565b610c228161066d565b82525050565b610c3181610634565b82525050565b6000608082019050610c4c6000830187610c19565b610c596020830186610c28565b610c666040830185610c19565b610c736060830184610c19565b95945050505050565b6000610c89828486610a01565b9150819050939250505056fea26469706673582212206b2f2d7b832fc48b15db3fc284dc1f256dc23c0f237103b65aaff744cfc7b87f64736f6c63430008120033",
  "linkReferences": {},
  "deployedLinkReferences": {}
}