{"contracts/PseudoRandom.sol":{"PseudoRandom":{"abi":[{"inputs":[{"internalType":"string","name":"seed","type":"string"}],"name":"getCombinedRandomNumber","outputs":[{"internalType":"uint256","name":"pseudoRandomNumber","type":"uint256"}],"stateMutability":"view","type":"function"},{"inputs":[{"internalType":"string","name":"seed","type":"string"}],"name":"getRandomNumber","outputs":[{"internalType":"uint256","name":"pseudoRandomNumber","type":"uint256"}],"stateMutability":"view","type":"function"},{"inputs":[{"internalType":"uint8","name":"_v","type":"uint8"},{"internalType":"bytes32","name":"_r","type":"bytes32"},{"internalType":"bytes32","name":"_s","type":"bytes32"}],"name":"setSignature","outputs":[],"stateMutability":"nonpayable","type":"function"},{"inputs":[{"internalType":"string","name":"message","type":"string"},{"internalType":"uint8","name":"v","type":"uint8"},{"internalType":"bytes32","name":"r","type":"bytes32"},{"internalType":"bytes32","name":"s","type":"bytes32"}],"name":"verifyString","outputs":[{"internalType":"address","name":"signer","type":"address"}],"stateMutability":"pure","type":"function"}],"evm":{"bytecode":{"linkReferences":{},"object":"608060405234801561001057600080fd5b50610ccb806100206000396000f3fe608060405234801561001057600080fd5b506004361061004c5760003560e01c80637457ec8b1461005157806382c389d614610081578063d2c3fbb71461009d578063d305843c146100cd575b600080fd5b61006b600480360381019061006691906105b3565b6100fd565b6040516100789190610619565b60405180910390f35b61009b600480360381019061009691906106a3565b61021f565b005b6100b760048036038101906100b29190610837565b61027b565b6040516100c491906108fb565b60405180910390f35b6100e760048036038101906100e291906105b3565b610427565b6040516100f49190610619565b60405180910390f35b60008061016b84848080601f016020809104026020016040519081016040528093929190818152602001838380828437600081840152601f19601f820116905080830192505050505050506000800160009054906101000a900460ff1660006001015460006002015461027b565b90508073ffffffffffffffffffffffffffffffffffffffff163373ffffffffffffffffffffffffffffffffffffffff16146101db576040517f08c379a00000000000000000000000000000000000000000000000000000000081526004016101d290610973565b60405180910390fd5b83836001436101ea91906109c2565b406040516020016101fd93929190610a47565b6040516020818303038152906040528051906020012060001c91505092915050565b60405180606001604052808460ff168152602001838152602001828152506000808201518160000160006101000a81548160ff021916908360ff1602179055506020820151816001015560408201518160020155905050505050565b6000806040518060400160405280602081526020017f19457468657265756d205369676e6564204d6573736167653a0a303030303030815250905060008087519050603983019150620f423f8111156102d357600080fd5b600080620186a090505b6000811461037757600081846102f39190610aa0565b90506000810361031b576000830361031a57600a826103129190610aa0565b9150506102dd565b5b828061032690610ad1565b93505081816103359190610b19565b8461034091906109c2565b9350600a8261034f9190610aa0565b915060308161035e9190610b5b565b9050848061036b90610ad1565b955050808553506102dd565b6000820361038857601b9150610398565b601a826103959190610b5b565b91505b8185526000858b6040516020016103b0929190610bf5565b6040516020818303038152906040528051906020012090506001818b8b8b604051600081526020016040526040516103eb9493929190610c37565b6020604051602081039080840390855afa15801561040d573d6000803e3d6000fd5b505050602060405103519650505050505050949350505050565b60008061049584848080601f016020809104026020016040519081016040528093929190818152602001838380828437600081840152601f19601f820116905080830192505050505050506000800160009054906101000a900460ff1660006001015460006002015461027b565b90508073ffffffffffffffffffffffffffffffffffffffff163373ffffffffffffffffffffffffffffffffffffffff1614610505576040517f08c379a00000000000000000000000000000000000000000000000000000000081526004016104fc90610973565b60405180910390fd5b8383604051602001610518929190610c7c565b6040516020818303038152906040528051906020012060001c91505092915050565b6000604051905090565b600080fd5b600080fd5b600080fd5b600080fd5b600080fd5b60008083601f8401126105735761057261054e565b5b8235905067ffffffffffffffff8111156105905761058f610553565b5b6020830191508360018202830111156105ac576105ab610558565b5b9250929050565b600080602083850312156105ca576105c9610544565b5b600083013567ffffffffffffffff8111156105e8576105e7610549565b5b6105f48582860161055d565b92509250509250929050565b6000819050919050565b61061381610600565b82525050565b600060208201905061062e600083018461060a565b92915050565b600060ff82169050919050565b61064a81610634565b811461065557600080fd5b50565b60008135905061066781610641565b92915050565b6000819050919050565b6106808161066d565b811461068b57600080fd5b50565b60008135905061069d81610677565b92915050565b6000806000606084860312156106bc576106bb610544565b5b60006106ca86828701610658565b93505060206106db8682870161068e565b92505060406106ec8682870161068e565b9150509250925092565b600080fd5b6000601f19601f8301169050919050565b7f4e487b7100000000000000000000000000000000000000000000000000000000600052604160045260246000fd5b610744826106fb565b810181811067ffffffffffffffff821117156107635761076261070c565b5b80604052505050565b600061077661053a565b9050610782828261073b565b919050565b600067ffffffffffffffff8211156107a2576107a161070c565b5b6107ab826106fb565b9050602081019050919050565b82818337600083830152505050565b60006107da6107d584610787565b61076c565b9050828152602081018484840111156107f6576107f56106f6565b5b6108018482856107b8565b509392505050565b600082601f83011261081e5761081d61054e565b5b813561082e8482602086016107c7565b91505092915050565b6000806000806080858703121561085157610850610544565b5b600085013567ffffffffffffffff81111561086f5761086e610549565b5b61087b87828801610809565b945050602061088c87828801610658565b935050604061089d8782880161068e565b92505060606108ae8782880161068e565b91505092959194509250565b600073ffffffffffffffffffffffffffffffffffffffff82169050919050565b60006108e5826108ba565b9050919050565b6108f5816108da565b82525050565b600060208201905061091060008301846108ec565b92915050565b600082825260208201905092915050565b7f496e76616c696420736565640000000000000000000000000000000000000000600082015250565b600061095d600c83610916565b915061096882610927565b602082019050919050565b6000602082019050818103600083015261098c81610950565b9050919050565b7f4e487b7100000000000000000000000000000000000000000000000000000000600052601160045260246000fd5b60006109cd82610600565b91506109d883610600565b92508282039050818111156109f0576109ef610993565b5b92915050565b600081905092915050565b6000610a0d83856109f6565b9350610a1a8385846107b8565b82840190509392505050565b6000819050919050565b610a41610a3c8261066d565b610a26565b82525050565b6000610a54828587610a01565b9150610a608284610a30565b602082019150819050949350505050565b7f4e487b7100000000000000000000000000000000000000000000000000000000600052601260045260246000fd5b6000610aab82610600565b9150610ab683610600565b925082610ac657610ac5610a71565b5b828204905092915050565b6000610adc82610600565b91507fffffffffffffffffffffffffffffffffffffffffffffffffffffffffffffffff8203610b0e57610b0d610993565b5b600182019050919050565b6000610b2482610600565b9150610b2f83610600565b9250828202610b3d81610600565b91508282048414831517610b5457610b53610993565b5b5092915050565b6000610b6682610600565b9150610b7183610600565b9250828201905080821115610b8957610b88610993565b5b92915050565b600081519050919050565b60005b83811015610bb8578082015181840152602081019050610b9d565b60008484015250505050565b6000610bcf82610b8f565b610bd981856109f6565b9350610be9818560208601610b9a565b80840191505092915050565b6000610c018285610bc4565b9150610c0d8284610bc4565b91508190509392505050565b610c228161066d565b82525050565b610c3181610634565b82525050565b6000608082019050610c4c6000830187610c19565b610c596020830186610c28565b610c666040830185610c19565b610c736060830184610c19565b95945050505050565b6000610c89828486610a01565b9150819050939250505056fea26469706673582212206b2f2d7b832fc48b15db3fc284dc1f256dc23c0f237103b65aaff744cfc7b87f64736f6c63430008120033","opcodes":"PUSH1 0x80 PUSH1 0x40 MSTORE CALLVALUE DUP1 ISZERO PUSH2 0x10 JUMPI PUSH1 0x0 DUP1 REVERT JUMPDEST POP PUSH2 0xCCB DUP1 PUSH2 0x20 PUSH1 0x0 CODECOPY PUSH1 0x0 RETURN INVALID PUSH1 0x80 PUSH1 0x40 MSTORE CALLVALUE DUP1 ISZERO PUSH2 0x10 JUMPI PUSH1 0x0 DUP1 REVERT JUMPDEST POP PUSH1 0x4 CALLDATASIZE LT PUSH2 0x4C JUMPI PUSH1 0x0 CALLDATALOAD PUSH1 0xE0 SHR DUP1 PUSH4 0x7457EC8B EQ PUSH2 0x51 JUMPI DUP1 PUSH4 0x82C389D6 EQ PUSH2 0x81 JUMPI DUP1 PUSH4 0xD2C3FBB7 EQ PUSH2 0x9D JUMPI DUP1 PUSH4 0xD305843C EQ PUSH2 0xCD JUMPI JUMPDEST PUSH1 0x0 DUP1 REVERT JUMPDEST PUSH2 0x6B PUSH1 0x4 DUP1 CALLDATASIZE SUB DUP2 ADD SWAP1 PUSH2 0x66 SWAP2 SWAP1 PUSH2 0x5B3 JUMP JUMPDEST PUSH2 0xFD JUMP JUMPDEST PUSH1 0x40 MLOAD PUSH2 0x78 SWAP2 SWAP1 PUSH2 0x619 JUMP JUMPDEST PUSH1 0x40 MLOAD DUP1 SWAP2 SUB SWAP1 RETURN JUMPDEST PUSH2 0x9B PUSH1 0x4 DUP1 CALLDATASIZE SUB DUP2 ADD SWAP1 PUSH2 0x96 SWAP2 SWAP1 PUSH2 0x6A3 JUMP JUMPDEST PUSH2 0x21F JUMP JUMPDEST STOP JUMPDEST PUSH2 0xB7 PUSH1 0x4 DUP1 CALLDATASIZE SUB DUP2 ADD SWAP1 PUSH2 0xB2 SWAP2 SWAP1 PUSH2 0x837 JUMP JUMPDEST PUSH2 0x27B JUMP JUMPDEST PUSH1 0x40 MLOAD PUSH2 0xC4 SWAP2 SWAP1 PUSH2 0x8FB JUMP JUMPDEST PUSH1 0x40 MLOAD DUP1 SWAP2 SUB SWAP1 RETURN JUMPDEST PUSH2 0xE7 PUSH1 0x4 DUP1 CALLDATASIZE SUB DUP2 ADD SWAP1 PUSH2 0xE2 SWAP2 SWAP1 PUSH2 0x5B3 JUMP JUMPDEST PUSH2 0x427 JUMP JUMPDEST PUSH1 0x40 MLOAD PUSH2 0xF4 SWAP2 SWAP1 PUSH2 0x619 JUMP JUMPDEST PUSH1 0x40 MLOAD DUP1 SWAP2 SUB SWAP1 RETURN JUMPDEST PUSH1 0x0 DUP1 PUSH2 0x16B DUP5 DUP5 DUP1 DUP1 PUSH1 0x1F ADD PUSH1 0x20 DUP1 SWAP2 DIV MUL PUSH1 0x20 ADD PUSH1 0x40 MLOAD SWAP1 DUP2 ADD PUSH1 0x40 MSTORE DUP1 SWAP4 SWAP3 SWAP2 SWAP1 DUP2 DUP2 MSTORE PUSH1 0x20 ADD DUP4 DUP4 DUP1 DUP3 DUP5 CALLDATACOPY PUSH1 0x0 DUP2 DUP5 ADD MSTORE PUSH1 0x1F NOT PUSH1 0x1F DUP3 ADD AND SWAP1 POP DUP1 DUP4 ADD SWAP3 POP POP POP POP POP POP POP PUSH1 0x0 DUP1 ADD PUSH1 0x0 SWAP1 SLOAD SWAP1 PUSH2 0x100 EXP SWAP1 DIV PUSH1 0xFF AND PUSH1 0x0 PUSH1 0x1 ADD SLOAD PUSH1 0x0 PUSH1 0x2 ADD SLOAD PUSH2 0x27B JUMP JUMPDEST SWAP1 POP DUP1 PUSH20 0xFFFFFFFFFFFFFFFFFFFFFFFFFFFFFFFFFFFFFFFF AND CALLER PUSH20 0xFFFFFFFFFFFFFFFFFFFFFFFFFFFFFFFFFFFFFFFF AND EQ PUSH2 0x1DB JUMPI PUSH1 0x40 MLOAD PUSH32 0x8C379A000000000000000000000000000000000000000000000000000000000 DUP2 MSTORE PUSH1 0x4 ADD PUSH2 0x1D2 SWAP1 PUSH2 0x973 JUMP JUMPDEST PUSH1 0x40 MLOAD DUP1 SWAP2 SUB SWAP1 REVERT JUMPDEST DUP4 DUP4 PUSH1 0x1 NUMBER PUSH2 0x1EA SWAP2 SWAP1 PUSH2 0x9C2 JUMP JUMPDEST BLOCKHASH PUSH1 0x40 MLOAD PUSH1 0x20 ADD PUSH2 0x1FD SWAP4 SWAP3 SWAP2 SWAP1 PUSH2 0xA47 JUMP JUMPDEST PUSH1 0x40 MLOAD PUSH1 0x20 DUP2 DUP4 SUB SUB DUP2 MSTORE SWAP1 PUSH1 0x40 MSTORE DUP1 MLOAD SWAP1 PUSH1 0x20 ADD KECCAK256 PUSH1 0x0 SHR SWAP2 POP POP SWAP3 SWAP2 POP POP JUMP JUMPDEST PUSH1 0x40 MLOAD DUP1 PUSH1 0x60 ADD PUSH1 0x40 MSTORE DUP1 DUP5 PUSH1 0xFF AND DUP2 MSTORE PUSH1 0x20 ADD DUP4 DUP2 MSTORE PUSH1 0x20 ADD DUP3 DUP2 MSTORE POP PUSH1 0x0 DUP1 DUP3 ADD MLOAD DUP2 PUSH1 0x0 ADD PUSH1 0x0 PUSH2 0x100 EXP DUP2 SLOAD DUP2 PUSH1 0xFF MUL NOT AND SWAP1 DUP4 PUSH1 0xFF AND MUL OR SWAP1 SSTORE POP PUSH1 0x20 DUP3 ADD MLOAD DUP2 PUSH1 0x1 ADD SSTORE PUSH1 0x40 DUP3 ADD MLOAD DUP2 PUSH1 0x2 ADD SSTORE SWAP1 POP POP POP POP POP JUMP JUMPDEST PUSH1 0x0 DUP1 PUSH1 0x40 MLOAD DUP1 PUSH1 0x40 ADD PUSH1 0x40 MSTORE DUP1 PUSH1 0x20 DUP2 MSTORE PUSH1 0x20 ADD PUSH32 0x19457468657265756D205369676E6564204D6573736167653A0A303030303030 DUP2 MSTORE POP SWAP1 POP PUSH1 0x0 DUP1 DUP8 MLOAD SWAP1 POP PUSH1 0x39 DUP4 ADD SWAP2 POP PUSH3 0xF423F DUP2 GT ISZERO PUSH2 0x2D3 JUMPI PUSH1 0x0 DUP1 REVERT JUMPDEST PUSH1 0x0 DUP1 PUSH3 0x186A0 SWAP1 POP JUMPDEST PUSH1 0x0 DUP2 EQ PUSH2 0x377 JUMPI PUSH1 0x0 DUP2 DUP5 PUSH2 0x2F3 SWAP2 SWAP1 PUSH2 0xAA0 JUMP JUMPDEST SWAP1 POP PUSH1 0x0 DUP2 SUB PUSH2 0x31B JUMPI PUSH1 0x0 DUP4 SUB PUSH2 0x31A JUMPI PUSH1 0xA DUP3 PUSH2 0x312 SWAP2 SWAP1 PUSH2 0xAA0 JUMP JUMPDEST SWAP2 POP POP PUSH2 0x2DD JUMP JUMPDEST JUMPDEST DUP3 DUP1 PUSH2 0x326 SWAP1 PUSH2 0xAD1 JUMP JUMPDEST SWAP4 POP POP DUP2 DUP2 PUSH2 0x335 SWAP2 SWAP1 PUSH2 0xB19 JUMP JUMPDEST DUP5 PUSH2 0x340 SWAP2 SWAP1 PUSH2 0x9C2 JUMP JUMPDEST SWAP4 POP PUSH1 0xA DUP3 PUSH2 0x34F SWAP2 SWAP1 PUSH2 0xAA0 JUMP JUMPDEST SWAP2 POP PUSH1 0x30 DUP2 PUSH2 0x35E SWAP2 SWAP1 PUSH2 0xB5B JUMP JUMPDEST SWAP1 POP DUP5 DUP1 PUSH2 0x36B SWAP1 PUSH2 0xAD1 JUMP JUMPDEST SWAP6 POP POP DUP1 DUP6 MSTORE8 POP PUSH2 0x2DD JUMP JUMPDEST PUSH1 0x0 DUP3 SUB PUSH2 0x388 JUMPI PUSH1 0x1B SWAP2 POP PUSH2 0x398 JUMP JUMPDEST PUSH1 0x1A DUP3 PUSH2 0x395 SWAP2 SWAP1 PUSH2 0xB5B JUMP JUMPDEST SWAP2 POP JUMPDEST DUP2 DUP6 MSTORE PUSH1 0x0 DUP6 DUP12 PUSH1 0x40 MLOAD PUSH1 0x20 ADD PUSH2 0x3B0 SWAP3 SWAP2 SWAP1 PUSH2 0xBF5 JUMP JUMPDEST PUSH1 0x40 MLOAD PUSH1 0x20 DUP2 DUP4 SUB SUB DUP2 MSTORE SWAP1 PUSH1 0x40 MSTORE DUP1 MLOAD SWAP1 PUSH1 0x20 ADD KECCAK256 SWAP1 POP PUSH1 0x1 DUP2 DUP12 DUP12 DUP12 PUSH1 0x40 MLOAD PUSH1 0x0 DUP2 MSTORE PUSH1 0x20 ADD PUSH1 0x40 MSTORE PUSH1 0x40 MLOAD PUSH2 0x3EB SWAP5 SWAP4 SWAP3 SWAP2 SWAP1 PUSH2 0xC37 JUMP JUMPDEST PUSH1 0x20 PUSH1 0x40 MLOAD PUSH1 0x20 DUP2 SUB SWAP1 DUP1 DUP5 SUB SWAP1 DUP6 GAS STATICCALL ISZERO DUP1 ISZERO PUSH2 0x40D JUMPI RETURNDATASIZE PUSH1 0x0 DUP1 RETURNDATACOPY RETURNDATASIZE PUSH1 0x0 REVERT JUMPDEST POP POP POP PUSH1 0x20 PUSH1 0x40 MLOAD SUB MLOAD SWAP7 POP POP POP POP POP POP POP SWAP5 SWAP4 POP POP POP POP JUMP JUMPDEST PUSH1 0x0 DUP1 PUSH2 0x495 DUP5 DUP5 DUP1 DUP1 PUSH1 0x1F ADD PUSH1 0x20 DUP1 SWAP2 DIV MUL PUSH1 0x20 ADD PUSH1 0x40 MLOAD SWAP1 DUP2 ADD PUSH1 0x40 MSTORE DUP1 SWAP4 SWAP3 SWAP2 SWAP1 DUP2 DUP2 MSTORE PUSH1 0x20 ADD DUP4 DUP4 DUP1 DUP3 DUP5 CALLDATACOPY PUSH1 0x0 DUP2 DUP5 ADD MSTORE PUSH1 0x1F NOT PUSH1 0x1F DUP3 ADD AND SWAP1 POP DUP1 DUP4 ADD SWAP3 POP POP POP POP POP POP POP PUSH1 0x0 DUP1 ADD PUSH1 0x0 SWAP1 SLOAD SWAP1 PUSH2 0x100 EXP SWAP1 DIV PUSH1 0xFF AND PUSH1 0x0 PUSH1 0x1 ADD SLOAD PUSH1 0x0 PUSH1 0x2 ADD SLOAD PUSH2 0x27B JUMP JUMPDEST SWAP1 POP DUP1 PUSH20 0xFFFFFFFFFFFFFFFFFFFFFFFFFFFFFFFFFFFFFFFF AND CALLER PUSH20 0xFFFFFFFFFFFFFFFFFFFFFFFFFFFFFFFFFFFFFFFF AND EQ PUSH2 0x505 JUMPI PUSH1 0x40 MLOAD PUSH32 0x8C379A000000000000000000000000000000000000000000000000000000000 DUP2 MSTORE PUSH1 0x4 ADD PUSH2 0x4FC SWAP1 PUSH2 0x973 JUMP JUMPDEST PUSH1 0x40 MLOAD DUP1 SWAP2 SUB SWAP1 REVERT JUMPDEST DUP4 DUP4 PUSH1 0x40 MLOAD PUSH1 0x20 ADD PUSH2 0x518 SWAP3 SWAP2 SWAP1 PUSH2 0xC7C JUMP JUMPDEST PUSH1 0x40 MLOAD PUSH1 0x20 DUP2 DUP4 SUB SUB DUP2 MSTORE SWAP1 PUSH1 0x40 MSTORE DUP1 MLOAD SWAP1 PUSH1 0x20 ADD KECCAK256 PUSH1 0x0 SHR SWAP2 POP POP SWAP3 SWAP2 POP POP JUMP JUMPDEST PUSH1 0x0 PUSH1 0x40 MLOAD SWAP1 POP SWAP1 JUMP JUMPDEST PUSH1 0x0 DUP1 REVERT JUMPDEST PUSH1 0x0 DUP1 REVERT JUMPDEST PUSH1 0x0 DUP1 REVERT JUMPDEST PUSH1 0x0 DUP1 REVERT JUMPDEST PUSH1 0x0 DUP1 REVERT JUMPDEST PUSH1 0x0 DUP1 DUP4 PUSH1 0x1F DUP5 ADD SLT PUSH2 0x573 JUMPI PUSH2 0x572 PUSH2 0x54E JUMP JUMPDEST JUMPDEST DUP3 CALLDATALOAD SWAP1 POP PUSH8 0xFFFFFFFFFFFFFFFF DUP2 GT ISZERO PUSH2 0x590 JUMPI PUSH2 0x58F PUSH2 0x553 JUMP JUMPDEST JUMPDEST PUSH1 0x20 DUP4 ADD SWAP2 POP DUP4 PUSH1 0x1 DUP3 MUL DUP4 ADD GT ISZERO PUSH2 0x5AC JUMPI PUSH2 0x5AB PUSH2 0x558 JUMP JUMPDEST JUMPDEST SWAP3 POP SWAP3 SWAP1 POP JUMP JUMPDEST PUSH1 0x0 DUP1 PUSH1 0x20 DUP4 DUP6 SUB SLT ISZERO PUSH2 0x5CA JUMPI PUSH2 0x5C9 PUSH2 0x544 JUMP JUMPDEST JUMPDEST PUSH1 0x0 DUP4 ADD CALLDATALOAD PUSH8 0xFFFFFFFFFFFFFFFF DUP2 GT ISZERO PUSH2 0x5E8 JUMPI PUSH2 0x5E7 PUSH2 0x549 JUMP JUMPDEST JUMPDEST PUSH2 0x5F4 DUP6 DUP3 DUP7 ADD PUSH2 0x55D JUMP JUMPDEST SWAP3 POP SWAP3 POP POP SWAP3 POP SWAP3 SWAP1 POP JUMP JUMPDEST PUSH1 0x0 DUP2 SWAP1 POP SWAP2 SWAP1 POP JUMP JUMPDEST PUSH2 0x613 DUP2 PUSH2 0x600 JUMP JUMPDEST DUP3 MSTORE POP POP JUMP JUMPDEST PUSH1 0x0 PUSH1 0x20 DUP3 ADD SWAP1 POP PUSH2 0x62E PUSH1 0x0 DUP4 ADD DUP5 PUSH2 0x60A JUMP JUMPDEST SWAP3 SWAP2 POP POP JUMP JUMPDEST PUSH1 0x0 PUSH1 0xFF DUP3 AND SWAP1 POP SWAP2 SWAP1 POP JUMP JUMPDEST PUSH2 0x64A DUP2 PUSH2 0x634 JUMP JUMPDEST DUP2 EQ PUSH2 0x655 JUMPI PUSH1 0x0 DUP1 REVERT JUMPDEST POP JUMP JUMPDEST PUSH1 0x0 DUP2 CALLDATALOAD SWAP1 POP PUSH2 0x667 DUP2 PUSH2 0x641 JUMP JUMPDEST SWAP3 SWAP2 POP POP JUMP JUMPDEST PUSH1 0x0 DUP2 SWAP1 POP SWAP2 SWAP1 POP JUMP JUMPDEST PUSH2 0x680 DUP2 PUSH2 0x66D JUMP JUMPDEST DUP2 EQ PUSH2 0x68B JUMPI PUSH1 0x0 DUP1 REVERT JUMPDEST POP JUMP JUMPDEST PUSH1 0x0 DUP2 CALLDATALOAD SWAP1 POP PUSH2 0x69D DUP2 PUSH2 0x677 JUMP JUMPDEST SWAP3 SWAP2 POP POP JUMP JUMPDEST PUSH1 0x0 DUP1 PUSH1 0x0 PUSH1 0x60 DUP5 DUP7 SUB SLT ISZERO PUSH2 0x6BC JUMPI PUSH2 0x6BB PUSH2 0x544 JUMP JUMPDEST JUMPDEST PUSH1 0x0 PUSH2 0x6CA DUP7 DUP3 DUP8 ADD PUSH2 0x658 JUMP JUMPDEST SWAP4 POP POP PUSH1 0x20 PUSH2 0x6DB DUP7 DUP3 DUP8 ADD PUSH2 0x68E JUMP JUMPDEST SWAP3 POP POP PUSH1 0x40 PUSH2 0x6EC DUP7 DUP3 DUP8 ADD PUSH2 0x68E JUMP JUMPDEST SWAP2 POP POP SWAP3 POP SWAP3 POP SWAP3 JUMP JUMPDEST PUSH1 0x0 DUP1 REVERT JUMPDEST PUSH1 0x0 PUSH1 0x1F NOT PUSH1 0x1F DUP4 ADD AND SWAP1 POP SWAP2 SWAP1 POP JUMP JUMPDEST PUSH32 0x4E487B7100000000000000000000000000000000000000000000000000000000 PUSH1 0x0 MSTORE PUSH1 0x41 PUSH1 0x4 MSTORE PUSH1 0x24 PUSH1 0x0 REVERT JUMPDEST PUSH2 0x744 DUP3 PUSH2 0x6FB JUMP JUMPDEST DUP2 ADD DUP2 DUP2 LT PUSH8 0xFFFFFFFFFFFFFFFF DUP3 GT OR ISZERO PUSH2 0x763 JUMPI PUSH2 0x762 PUSH2 0x70C JUMP JUMPDEST JUMPDEST DUP1 PUSH1 0x40 MSTORE POP POP POP JUMP JUMPDEST PUSH1 0x0 PUSH2 0x776 PUSH2 0x53A JUMP JUMPDEST SWAP1 POP PUSH2 0x782 DUP3 DUP3 PUSH2 0x73B JUMP JUMPDEST SWAP2 SWAP1 POP JUMP JUMPDEST PUSH1 0x0 PUSH8 0xFFFFFFFFFFFFFFFF DUP3 GT ISZERO PUSH2 0x7A2 JUMPI PUSH2 0x7A1 PUSH2 0x70C JUMP JUMPDEST JUMPDEST PUSH2 0x7AB DUP3 PUSH2 0x6FB JUMP JUMPDEST SWAP1 POP PUSH1 0x20 DUP2 ADD SWAP1 POP SWAP2 SWAP1 POP JUMP JUMPDEST DUP3 DUP2 DUP4 CALLDATACOPY PUSH1 0x0 DUP4 DUP4 ADD MSTORE POP POP POP JUMP JUMPDEST PUSH1 0x0 PUSH2 0x7DA PUSH2 0x7D5 DUP5 PUSH2 0x787 JUMP JUMPDEST PUSH2 0x76C JUMP JUMPDEST SWAP1 POP DUP3 DUP2 MSTORE PUSH1 0x20 DUP2 ADD DUP5 DUP5 DUP5 ADD GT ISZERO PUSH2 0x7F6 JUMPI PUSH2 0x7F5 PUSH2 0x6F6 JUMP JUMPDEST JUMPDEST PUSH2 0x801 DUP5 DUP3 DUP6 PUSH2 0x7B8 JUMP JUMPDEST POP SWAP4 SWAP3 POP POP POP JUMP JUMPDEST PUSH1 0x0 DUP3 PUSH1 0x1F DUP4 ADD SLT PUSH2 0x81E JUMPI PUSH2 0x81D PUSH2 0x54E JUMP JUMPDEST JUMPDEST DUP2 CALLDATALOAD PUSH2 0x82E DUP5 DUP3 PUSH1 0x20 DUP7 ADD PUSH2 0x7C7 JUMP JUMPDEST SWAP2 POP POP SWAP3 SWAP2 POP POP JUMP JUMPDEST PUSH1 0x0 DUP1 PUSH1 0x0 DUP1 PUSH1 0x80 DUP6 DUP8 SUB SLT ISZERO PUSH2 0x851 JUMPI PUSH2 0x850 PUSH2 0x544 JUMP JUMPDEST JUMPDEST PUSH1 0x0 DUP6 ADD CALLDATALOAD PUSH8 0xFFFFFFFFFFFFFFFF DUP2 GT ISZERO PUSH2 0x86F JUMPI PUSH2 0x86E PUSH2 0x549 JUMP JUMPDEST JUMPDEST PUSH2 0x87B DUP8 DUP3 DUP9 ADD PUSH2 0x809 JUMP JUMPDEST SWAP5 POP POP PUSH1 0x20 PUSH2 0x88C DUP8 DUP3 DUP9 ADD PUSH2 0x658 JUMP JUMPDEST SWAP4 POP POP PUSH1 0x40 PUSH2 0x89D DUP8 DUP3 DUP9 ADD PUSH2 0x68E JUMP JUMPDEST SWAP3 POP POP PUSH1 0x60 PUSH2 0x8AE DUP8 DUP3 DUP9 ADD PUSH2 0x68E JUMP JUMPDEST SWAP2 POP POP SWAP3 SWAP6 SWAP2 SWAP5 POP SWAP3 POP JUMP JUMPDEST PUSH1 0x0 PUSH20 0xFFFFFFFFFFFFFFFFFFFFFFFFFFFFFFFFFFFFFFFF DUP3 AND SWAP1 POP SWAP2 SWAP1 POP JUMP JUMPDEST PUSH1 0x0 PUSH2 0x8E5 DUP3 PUSH2 0x8BA JUMP JUMPDEST SWAP1 POP SWAP2 SWAP1 POP JUMP JUMPDEST PUSH2 0x8F5 DUP2 PUSH2 0x8DA JUMP JUMPDEST DUP3 MSTORE POP POP JUMP JUMPDEST PUSH1 0x0 PUSH1 0x20 DUP3 ADD SWAP1 POP PUSH2 0x910 PUSH1 0x0 DUP4 ADD DUP5 PUSH2 0x8EC JUMP JUMPDEST SWAP3 SWAP2 POP POP JUMP JUMPDEST PUSH1 0x0 DUP3 DUP3 MSTORE PUSH1 0x20 DUP3 ADD SWAP1 POP SWAP3 SWAP2 POP POP JUMP JUMPDEST PUSH32 0x496E76616C696420736565640000000000000000000000000000000000000000 PUSH1 0x0 DUP3 ADD MSTORE POP JUMP JUMPDEST PUSH1 0x0 PUSH2 0x95D PUSH1 0xC DUP4 PUSH2 0x916 JUMP JUMPDEST SWAP2 POP PUSH2 0x968 DUP3 PUSH2 0x927 JUMP JUMPDEST PUSH1 0x20 DUP3 ADD SWAP1 POP SWAP2 SWAP1 POP JUMP JUMPDEST PUSH1 0x0 PUSH1 0x20 DUP3 ADD SWAP1 POP DUP2 DUP2 SUB PUSH1 0x0 DUP4 ADD MSTORE PUSH2 0x98C DUP2 PUSH2 0x950 JUMP JUMPDEST SWAP1 POP SWAP2 SWAP1 POP JUMP JUMPDEST PUSH32 0x4E487B7100000000000000000000000000000000000000000000000000000000 PUSH1 0x0 MSTORE PUSH1 0x11 PUSH1 0x4 MSTORE PUSH1 0x24 PUSH1 0x0 REVERT JUMPDEST PUSH1 0x0 PUSH2 0x9CD DUP3 PUSH2 0x600 JUMP JUMPDEST SWAP2 POP PUSH2 0x9D8 DUP4 PUSH2 0x600 JUMP JUMPDEST SWAP3 POP DUP3 DUP3 SUB SWAP1 POP DUP2 DUP2 GT ISZERO PUSH2 0x9F0 JUMPI PUSH2 0x9EF PUSH2 0x993 JUMP JUMPDEST JUMPDEST SWAP3 SWAP2 POP POP JUMP JUMPDEST PUSH1 0x0 DUP2 SWAP1 POP SWAP3 SWAP2 POP POP JUMP JUMPDEST PUSH1 0x0 PUSH2 0xA0D DUP4 DUP6 PUSH2 0x9F6 JUMP JUMPDEST SWAP4 POP PUSH2 0xA1A DUP4 DUP6 DUP5 PUSH2 0x7B8 JUMP JUMPDEST DUP3 DUP5 ADD SWAP1 POP SWAP4 SWAP3 POP POP POP JUMP JUMPDEST PUSH1 0x0 DUP2 SWAP1 POP SWAP2 SWAP1 POP JUMP JUMPDEST PUSH2 0xA41 PUSH2 0xA3C DUP3 PUSH2 0x66D JUMP JUMPDEST PUSH2 0xA26 JUMP JUMPDEST DUP3 MSTORE POP POP JUMP JUMPDEST PUSH1 0x0 PUSH2 0xA54 DUP3 DUP6 DUP8 PUSH2 0xA01 JUMP JUMPDEST SWAP2 POP PUSH2 0xA60 DUP3 DUP5 PUSH2 0xA30 JUMP JUMPDEST PUSH1 0x20 DUP3 ADD SWAP2 POP DUP2 SWAP1 POP SWAP5 SWAP4 POP POP POP POP JUMP JUMPDEST PUSH32 0x4E487B7100000000000000000000000000000000000000000000000000000000 PUSH1 0x0 MSTORE PUSH1 0x12 PUSH1 0x4 MSTORE PUSH1 0x24 PUSH1 0x0 REVERT JUMPDEST PUSH1 0x0 PUSH2 0xAAB DUP3 PUSH2 0x600 JUMP JUMPDEST SWAP2 POP PUSH2 0xAB6 DUP4 PUSH2 0x600 JUMP JUMPDEST SWAP3 POP DUP3 PUSH2 0xAC6 JUMPI PUSH2 0xAC5 PUSH2 0xA71 JUMP JUMPDEST JUMPDEST DUP3 DUP3 DIV SWAP1 POP SWAP3 SWAP2 POP POP JUMP JUMPDEST PUSH1 0x0 PUSH2 0xADC DUP3 PUSH2 0x600 JUMP JUMPDEST SWAP2 POP PUSH32 0xFFFFFFFFFFFFFFFFFFFFFFFFFFFFFFFFFFFFFFFFFFFFFFFFFFFFFFFFFFFFFFFF DUP3 SUB PUSH2 0xB0E JUMPI PUSH2 0xB0D PUSH2 0x993 JUMP JUMPDEST JUMPDEST PUSH1 0x1 DUP3 ADD SWAP1 POP SWAP2 SWAP1 POP JUMP JUMPDEST PUSH1 0x0 PUSH2 0xB24 DUP3 PUSH2 0x600 JUMP JUMPDEST SWAP2 POP PUSH2 0xB2F DUP4 PUSH2 0x600 JUMP JUMPDEST SWAP3 POP DUP3 DUP3 MUL PUSH2 0xB3D DUP2 PUSH2 0x600 JUMP JUMPDEST SWAP2 POP DUP3 DUP3 DIV DUP5 EQ DUP4 ISZERO OR PUSH2 0xB54 JUMPI PUSH2 0xB53 PUSH2 0x993 JUMP JUMPDEST JUMPDEST POP SWAP3 SWAP2 POP POP JUMP JUMPDEST PUSH1 0x0 PUSH2 0xB66 DUP3 PUSH2 0x600 JUMP JUMPDEST SWAP2 POP PUSH2 0xB71 DUP4 PUSH2 0x600 JUMP JUMPDEST SWAP3 POP DUP3 DUP3 ADD SWAP1 POP DUP1 DUP3 GT ISZERO PUSH2 0xB89 JUMPI PUSH2 0xB88 PUSH2 0x993 JUMP JUMPDEST JUMPDEST SWAP3 SWAP2 POP POP JUMP JUMPDEST PUSH1 0x0 DUP2 MLOAD SWAP1 POP SWAP2 SWAP1 POP JUMP JUMPDEST PUSH1 0x0 JUMPDEST DUP4 DUP2 LT ISZERO PUSH2 0xBB8 JUMPI DUP1 DUP3 ADD MLOAD DUP2 DUP5 ADD MSTORE PUSH1 0x20 DUP2 ADD SWAP1 POP PUSH2 0xB9D JUMP JUMPDEST PUSH1 0x0 DUP5 DUP5 ADD MSTORE POP POP POP POP JUMP JUMPDEST PUSH1 0x0 PUSH2 0xBCF DUP3 PUSH2 0xB8F JUMP JUMPDEST PUSH2 0xBD9 DUP2 DUP6 PUSH2 0x9F6 JUMP JUMPDEST SWAP4 POP PUSH2 0xBE9 DUP2 DUP6 PUSH1 0x20 DUP7 ADD PUSH2 0xB9A JUMP JUMPDEST DUP1 DUP5 ADD SWAP2 POP POP SWAP3 SWAP2 POP POP JUMP JUMPDEST PUSH1 0x0 PUSH2 0xC01 DUP3 DUP6 PUSH2 0xBC4 JUMP JUMPDEST SWAP2 POP PUSH2 0xC0D DUP3 DUP5 PUSH2 0xBC4 JUMP JUMPDEST SWAP2 POP DUP2 SWAP1 POP SWAP4 SWAP3 POP POP POP JUMP JUMPDEST PUSH2 0xC22 DUP2 PUSH2 0x66D JUMP JUMPDEST DUP3 MSTORE POP POP JUMP JUMPDEST PUSH2 0xC31 DUP2 PUSH2 0x634 JUMP JUMPDEST DUP3 MSTORE POP POP JUMP JUMPDEST PUSH1 0x0 PUSH1 0x80 DUP3 ADD SWAP1 POP PUSH2 0xC4C PUSH1 0x0 DUP4 ADD DUP8 PUSH2 0xC19 JUMP JUMPDEST PUSH2 0xC59 PUSH1 0x20 DUP4 ADD DUP7 PUSH2 0xC28 JUMP JUMPDEST PUSH2 0xC66 PUSH1 0x40 DUP4 ADD DUP6 PUSH2 0xC19 JUMP JUMPDEST PUSH2 0xC73 PUSH1 0x60 DUP4 ADD DUP5 PUSH2 0xC19 JUMP JUMPDEST SWAP6 SWAP5 POP POP POP POP POP JUMP JUMPDEST PUSH1 0x0 PUSH2 0xC89 DUP3 DUP5 DUP7 PUSH2 0xA01 JUMP JUMPDEST SWAP2 POP DUP2 SWAP1 POP SWAP4 SWAP3 POP POP POP JUMP INVALID LOG2 PUSH5 0x6970667358 0x22 SLT KECCAK256 PUSH12 0x2F2D7B832FC48B15DB3FC284 0xDC 0x1F 0x25 PUSH14 0xC23C0F237103B65AAFF744CFC7B8 PUSH32 0x64736F6C63430008120033000000000000000000000000000000000000000000 "},"methodIdentifiers":{"getCombinedRandomNumber(string)":"7457ec8b","getRandomNumber(string)":"d305843c","setSignature(uint8,bytes32,bytes32)":"82c389d6","verifyString(string,uint8,bytes32,bytes32)":"d2c3fbb7"}}}}}