{"contracts/Random.sol":{"Random":{"abi":[{"inputs":[],"name":"getRandomNumber","outputs":[{"internalType":"uint256","name":"randomNumber","type":"uint256"}],"stateMutability":"view","type":"function"},{"inputs":[],"name":"tossCoin","outputs":[{"internalType":"bool","name":"heads","type":"bool"}],"stateMutability":"view","type":"function"}],"evm":{"bytecode":{"linkReferences":{},"object":"608060405234801561001057600080fd5b5061019c806100206000396000f3fe608060405234801561001057600080fd5b50600436106100365760003560e01c8063b41e8cad1461003b578063dbdff2c114610059575b600080fd5b610043610077565b60405161005091906100b7565b60405180910390f35b610061610094565b60405161006e91906100eb565b60405180910390f35b6000806002610084610094565b61008e9190610135565b14905090565b600044905090565b60008115159050919050565b6100b18161009c565b82525050565b60006020820190506100cc60008301846100a8565b92915050565b6000819050919050565b6100e5816100d2565b82525050565b600060208201905061010060008301846100dc565b92915050565b7f4e487b7100000000000000000000000000000000000000000000000000000000600052601260045260246000fd5b6000610140826100d2565b915061014b836100d2565b92508261015b5761015a610106565b5b82820690509291505056fea2646970667358221220bd1eca202bd079a5b3b1ce7acb7625aabe4d1234f8a510bef01f767786c3f72864736f6c63430008120033","opcodes":"PUSH1 0x80 PUSH1 0x40 MSTORE CALLVALUE DUP1 ISZERO PUSH2 0x10 JUMPI PUSH1 0x0 DUP1 REVERT JUMPDEST POP PUSH2 0x19C DUP1 PUSH2 0x20 PUSH1 0x0 CODECOPY PUSH1 0x0 RETURN INVALID PUSH1 0x80 PUSH1 0x40 MSTORE CALLVALUE DUP1 ISZERO PUSH2 0x10 JUMPI PUSH1 0x0 DUP1 REVERT JUMPDEST POP PUSH1 0x4 CALLDATASIZE LT PUSH2 0x36 JUMPI PUSH1 0x0 CALLDATALOAD PUSH1 0xE0 SHR DUP1 PUSH4 0xB41E8CAD EQ PUSH2 0x3B JUMPI DUP1 PUSH4 0xDBDFF2C1 EQ PUSH2 0x59 JUMPI JUMPDEST PUSH1 0x0 DUP1 REVERT JUMPDEST PUSH2 0x43 PUSH2 0x77 JUMP JUMPDEST PUSH1 0x40 MLOAD PUSH2 0x50 SWAP2 SWAP1 PUSH2 0xB7 JUMP JUMPDEST PUSH1 0x40 MLOAD DUP1 SWAP2 SUB SWAP1 RETURN JUMPDEST PUSH2 0x61 PUSH2 0x94 JUMP JUMPDEST PUSH1 0x40 MLOAD PUSH2 0x6E SWAP2 SWAP1 PUSH2 0xEB JUMP JUMPDEST PUSH1 0x40 MLOAD DUP1 SWAP2 SUB SWAP1 RETURN JUMPDEST PUSH1 0x0 DUP1 PUSH1 0x2 PUSH2 0x84 PUSH2 0x94 JUMP JUMPDEST PUSH2 0x8E SWAP2 SWAP1 PUSH2 0x135 JUMP JUMPDEST EQ SWAP1 POP SWAP1 JUMP JUMPDEST PUSH1 0x0 PREVRANDAO SWAP1 POP SWAP1 JUMP JUMPDEST PUSH1 0x0 DUP2 ISZERO ISZERO SWAP1 POP SWAP2 SWAP1 POP JUMP JUMPDEST PUSH2 0xB1 DUP2 PUSH2 0x9C JUMP JUMPDEST DUP3 MSTORE POP POP JUMP JUMPDEST PUSH1 0x0 PUSH1 0x20 DUP3 ADD SWAP1 POP PUSH2 0xCC PUSH1 0x0 DUP4 ADD DUP5 PUSH2 0xA8 JUMP JUMPDEST SWAP3 SWAP2 POP POP JUMP JUMPDEST PUSH1 0x0 DUP2 SWAP1 POP SWAP2 SWAP1 POP JUMP JUMPDEST PUSH2 0xE5 DUP2 PUSH2 0xD2 JUMP JUMPDEST DUP3 MSTORE POP POP JUMP JUMPDEST PUSH1 0x0 PUSH1 0x20 DUP3 ADD SWAP1 POP PUSH2 0x100 PUSH1 0x0 DUP4 ADD DUP5 PUSH2 0xDC JUMP JUMPDEST SWAP3 SWAP2 POP POP JUMP JUMPDEST PUSH32 0x4E487B7100000000000000000000000000000000000000000000000000000000 PUSH1 0x0 MSTORE PUSH1 0x12 PUSH1 0x4 MSTORE PUSH1 0x24 PUSH1 0x0 REVERT JUMPDEST PUSH1 0x0 PUSH2 0x140 DUP3 PUSH2 0xD2 JUMP JUMPDEST SWAP2 POP PUSH2 0x14B DUP4 PUSH2 0xD2 JUMP JUMPDEST SWAP3 POP DUP3 PUSH2 0x15B JUMPI PUSH2 0x15A PUSH2 0x106 JUMP JUMPDEST JUMPDEST DUP3 DUP3 MOD SWAP1 POP SWAP3 SWAP2 POP POP JUMP INVALID LOG2 PUSH5 0x6970667358 0x22 SLT KECCAK256 0xBD 0x1E 0xCA KECCAK256 0x2B 0xD0 PUSH26 0xA5B3B1CE7ACB7625AABE4D1234F8A510BEF01F767786C3F72864 PUSH20 0x6F6C634300081200330000000000000000000000 "},"methodIdentifiers":{"getRandomNumber()":"dbdff2c1","tossCoin()":"b41e8cad"}}}}}