{
  "_format": "hh-sol-artifact-1",
  "contractName": "MyNFT",
  "sourceName": "contracts/MyERC721.sol",
  "abi": [
    {
      "inputs": [],
      "stateMutability": "nonpayable",
      "type": "constructor"
    },
    {
      "anonymous": false,
      "inputs": [
        {
          "indexed": true,
          "internalType": "address",
          "name": "owner",
          "type": "address"
        },
        {
          "indexed": true,
          "internalType": "address",
          "name": "approved",
          "type": "address"
        },
        {
          "indexed": true,
          "internalType": "uint256",
          "name": "tokenId",
          "type": "uint256"
        }
      ],
      "name": "Approval",
      "type": "event"
    },
    {
      "anonymous": false,
      "inputs": [
        {
          "indexed": true,
          "internalType": "address",
          "name": "owner",
          "type": "address"
        },
        {
          "indexed": true,
          "internalType": "address",
          "name": "operator",
          "type": "address"
        },
        {
          "indexed": false,
          "internalType": "bool",
          "name": "approved",
          "type": "bool"
        }
      ],
      "name": "ApprovalForAll",
      "type": "event"
    },
    {
      "anonymous": false,
      "inputs": [
        {
          "indexed": true,
          "internalType": "bytes32",
          "name": "role",
          "type": "bytes32"
        },
        {
          "indexed": true,
          "internalType": "bytes32",
          "name": "previousAdminRole",
          "type": "bytes32"
        },
        {
          "indexed": true,
          "internalType": "bytes32",
          "name": "newAdminRole",
          "type": "bytes32"
        }
      ],
      "name": "RoleAdminChanged",
      "type": "event"
    },
    {
      "anonymous": false,
      "inputs": [
        {
          "indexed": true,
          "internalType": "bytes32",
          "name": "role",
          "type": "bytes32"
        },
        {
          "indexed": true,
          "internalType": "address",
          "name": "account",
          "type": "address"
        },
        {
          "indexed": true,
          "internalType": "address",
          "name": "sender",
          "type": "address"
        }
      ],
      "name": "RoleGranted",
      "type": "event"
    },
    {
      "anonymous": false,
      "inputs": [
        {
          "indexed": true,
          "internalType": "bytes32",
          "name": "role",
          "type": "bytes32"
        },
        {
          "indexed": true,
          "internalType": "address",
          "name": "account",
          "type": "address"
        },
        {
          "indexed": true,
          "internalType": "address",
          "name": "sender",
          "type": "address"
        }
      ],
      "name": "RoleRevoked",
      "type": "event"
    },
    {
      "anonymous": false,
      "inputs": [
        {
          "indexed": true,
          "internalType": "address",
          "name": "from",
          "type": "address"
        },
        {
          "indexed": true,
          "internalType": "address",
          "name": "to",
          "type": "address"
        },
        {
          "indexed": true,
          "internalType": "uint256",
          "name": "tokenId",
          "type": "uint256"
        }
      ],
      "name": "Transfer",
      "type": "event"
    },
    {
      "inputs": [],
      "name": "DEFAULT_ADMIN_ROLE",
      "outputs": [
        {
          "internalType": "bytes32",
          "name": "",
          "type": "bytes32"
        }
      ],
      "stateMutability": "view",
      "type": "function"
    },
    {
      "inputs": [],
      "name": "MINTER_ROLE",
      "outputs": [
        {
          "internalType": "bytes32",
          "name": "",
          "type": "bytes32"
        }
      ],
      "stateMutability": "view",
      "type": "function"
    },
    {
      "inputs": [
        {
          "internalType": "address",
          "name": "to",
          "type": "address"
        },
        {
          "internalType": "uint256",
          "name": "tokenId",
          "type": "uint256"
        }
      ],
      "name": "approve",
      "outputs": [],
      "stateMutability": "nonpayable",
      "type": "function"
    },
    {
      "inputs": [
        {
          "internalType": "address",
          "name": "owner",
          "type": "address"
        }
      ],
      "name": "balanceOf",
      "outputs": [
        {
          "internalType": "uint256",
          "name": "",
          "type": "uint256"
        }
      ],
      "stateMutability": "view",
      "type": "function"
    },
    {
      "inputs": [
        {
          "internalType": "uint256",
          "name": "tokenId",
          "type": "uint256"
        }
      ],
      "name": "burn",
      "outputs": [],
      "stateMutability": "nonpayable",
      "type": "function"
    },
    {
      "inputs": [
        {
          "internalType": "uint256",
          "name": "tokenId",
          "type": "uint256"
        }
      ],
      "name": "getApproved",
      "outputs": [
        {
          "internalType": "address",
          "name": "",
          "type": "address"
        }
      ],
      "stateMutability": "view",
      "type": "function"
    },
    {
      "inputs": [
        {
          "internalType": "bytes32",
          "name": "role",
          "type": "bytes32"
        }
      ],
      "name": "getRoleAdmin",
      "outputs": [
        {
          "internalType": "bytes32",
          "name": "",
          "type": "bytes32"
        }
      ],
      "stateMutability": "view",
      "type": "function"
    },
    {
      "inputs": [
        {
          "internalType": "bytes32",
          "name": "role",
          "type": "bytes32"
        },
        {
          "internalType": "address",
          "name": "account",
          "type": "address"
        }
      ],
      "name": "grantRole",
      "outputs": [],
      "stateMutability": "nonpayable",
      "type": "function"
    },
    {
      "inputs": [
        {
          "internalType": "bytes32",
          "name": "role",
          "type": "bytes32"
        },
        {
          "internalType": "address",
          "name": "account",
          "type": "address"
        }
      ],
      "name": "hasRole",
      "outputs": [
        {
          "internalType": "bool",
          "name": "",
          "type": "bool"
        }
      ],
      "stateMutability": "view",
      "type": "function"
    },
    {
      "inputs": [
        {
          "internalType": "address",
          "name": "owner",
          "type": "address"
        },
        {
          "internalType": "address",
          "name": "operator",
          "type": "address"
        }
      ],
      "name": "isApprovedForAll",
      "outputs": [
        {
          "internalType": "bool",
          "name": "",
          "type": "bool"
        }
      ],
      "stateMutability": "view",
      "type": "function"
    },
    {
      "inputs": [],
      "name": "name",
      "outputs": [
        {
          "internalType": "string",
          "name": "",
          "type": "string"
        }
      ],
      "stateMutability": "view",
      "type": "function"
    },
    {
      "inputs": [
        {
          "internalType": "uint256",
          "name": "tokenId",
          "type": "uint256"
        }
      ],
      "name": "ownerOf",
      "outputs": [
        {
          "internalType": "address",
          "name": "",
          "type": "address"
        }
      ],
      "stateMutability": "view",
      "type": "function"
    },
    {
      "inputs": [
        {
          "internalType": "bytes32",
          "name": "role",
          "type": "bytes32"
        },
        {
          "internalType": "address",
          "name": "account",
          "type": "address"
        }
      ],
      "name": "renounceRole",
      "outputs": [],
      "stateMutability": "nonpayable",
      "type": "function"
    },
    {
      "inputs": [
        {
          "internalType": "bytes32",
          "name": "role",
          "type": "bytes32"
        },
        {
          "internalType": "address",
          "name": "account",
          "type": "address"
        }
      ],
      "name": "revokeRole",
      "outputs": [],
      "stateMutability": "nonpayable",
      "type": "function"
    },
    {
      "inputs": [
        {
          "internalType": "address",
          "name": "to",
          "type": "address"
        },
        {
          "internalType": "uint256",
          "name": "tokenId",
          "type": "uint256"
        }
      ],
      "name": "safeMint",
      "outputs": [],
      "stateMutability": "nonpayable",
      "type": "function"
    },
    {
      "inputs": [
        {
          "internalType": "address",
          "name": "from",
          "type": "address"
        },
        {
          "internalType": "address",
          "name": "to",
          "type": "address"
        },
        {
          "internalType": "uint256",
          "name": "tokenId",
          "type": "uint256"
        }
      ],
      "name": "safeTransferFrom",
      "outputs": [],
      "stateMutability": "nonpayable",
      "type": "function"
    },
    {
      "inputs": [
        {
          "internalType": "address",
          "name": "from",
          "type": "address"
        },
        {
          "internalType": "address",
          "name": "to",
          "type": "address"
        },
        {
          "internalType": "uint256",
          "name": "tokenId",
          "type": "uint256"
        },
        {
          "internalType": "bytes",
          "name": "data",
          "type": "bytes"
        }
      ],
      "name": "safeTransferFrom",
      "outputs": [],
      "stateMutability": "nonpayable",
      "type": "function"
    },
    {
      "inputs": [
        {
          "internalType": "address",
          "name": "operator",
          "type": "address"
        },
        {
          "internalType": "bool",
          "name": "approved",
          "type": "bool"
        }
      ],
      "name": "setApprovalForAll",
      "outputs": [],
      "stateMutability": "nonpayable",
      "type": "function"
    },
    {
      "inputs": [
        {
          "internalType": "bytes4",
          "name": "interfaceId",
          "type": "bytes4"
        }
      ],
      "name": "supportsInterface",
      "outputs": [
        {
          "internalType": "bool",
          "name": "",
          "type": "bool"
        }
      ],
      "stateMutability": "view",
      "type": "function"
    },
    {
      "inputs": [],
      "name": "symbol",
      "outputs": [
        {
          "internalType": "string",
          "name": "",
          "type": "string"
        }
      ],
      "stateMutability": "view",
      "type": "function"
    },
    {
      "inputs": [
        {
          "internalType": "uint256",
          "name": "tokenId",
          "type": "uint256"
        }
      ],
      "name": "tokenURI",
      "outputs": [
        {
          "internalType": "string",
          "name": "",
          "type": "string"
        }
      ],
      "stateMutability": "view",
      "type": "function"
    },
    {
      "inputs": [
        {
          "internalType": "address",
          "name": "from",
          "type": "address"
        },
        {
          "internalType": "address",
          "name": "to",
          "type": "address"
        },
        {
          "internalType": "uint256",
          "name": "tokenId",
          "type": "uint256"
        }
      ],
      "name": "transferFrom",
      "outputs": [],
      "stateMutability": "nonpayable",
      "type": "function"
    }
  ],
  "bytecode": "0x60806040523480156200001157600080fd5b506040518060400160405280600581526020017f4d794e46540000000000000000000000000000000000000000000000000000008152506040518060400160405280600381526020017f4d544b000000000000000000000000000000000000000000000000000000000081525081600090816200008f9190620004d0565b508060019081620000a19190620004d0565b505050620000b96000801b33620000f160201b60201c565b620000eb7f9f2df0fed2c77648de5860a4cc508cd0818c85b8b8a1ab4ceeef8d981c8956a633620000f160201b60201c565b620005b7565b620001038282620001e360201b60201c565b620001df5760016006600084815260200190815260200160002060000160008373ffffffffffffffffffffffffffffffffffffffff1673ffffffffffffffffffffffffffffffffffffffff16815260200190815260200160002060006101000a81548160ff021916908315150217905550620001846200024e60201b60201c565b73ffffffffffffffffffffffffffffffffffffffff168173ffffffffffffffffffffffffffffffffffffffff16837f2f8788117e7eff1d82e926ec794901d17c78024a50270940304540a733656f0d60405160405180910390a45b5050565b60006006600084815260200190815260200160002060000160008373ffffffffffffffffffffffffffffffffffffffff1673ffffffffffffffffffffffffffffffffffffffff16815260200190815260200160002060009054906101000a900460ff16905092915050565b600033905090565b600081519050919050565b7f4e487b7100000000000000000000000000000000000000000000000000000000600052604160045260246000fd5b7f4e487b7100000000000000000000000000000000000000000000000000000000600052602260045260246000fd5b60006002820490506001821680620002d857607f821691505b602082108103620002ee57620002ed62000290565b5b50919050565b60008190508160005260206000209050919050565b60006020601f8301049050919050565b600082821b905092915050565b600060088302620003587fffffffffffffffffffffffffffffffffffffffffffffffffffffffffffffffff8262000319565b62000364868362000319565b95508019841693508086168417925050509392505050565b6000819050919050565b6000819050919050565b6000620003b1620003ab620003a5846200037c565b62000386565b6200037c565b9050919050565b6000819050919050565b620003cd8362000390565b620003e5620003dc82620003b8565b84845462000326565b825550505050565b600090565b620003fc620003ed565b62000409818484620003c2565b505050565b5b81811015620004315762000425600082620003f2565b6001810190506200040f565b5050565b601f82111562000480576200044a81620002f4565b620004558462000309565b8101602085101562000465578190505b6200047d620004748562000309565b8301826200040e565b50505b505050565b600082821c905092915050565b6000620004a56000198460080262000485565b1980831691505092915050565b6000620004c0838362000492565b9150826002028217905092915050565b620004db8262000256565b67ffffffffffffffff811115620004f757620004f662000261565b5b620005038254620002bf565b6200051082828562000435565b600060209050601f83116001811462000548576000841562000533578287015190505b6200053f8582620004b2565b865550620005af565b601f1984166200055886620002f4565b60005b8281101562000582578489015182556001820191506020850194506020810190506200055b565b86831015620005a257848901516200059e601f89168262000492565b8355505b6001600288020188555050505b505050505050565b6133c680620005c76000396000f3fe608060405234801561001057600080fd5b50600436106101425760003560e01c806370a08231116100b8578063a22cb4651161007c578063a22cb46514610385578063b88d4fde146103a1578063c87b56dd146103bd578063d5391393146103ed578063d547741f1461040b578063e985e9c51461042757610142565b806370a08231146102cd57806391d14854146102fd57806395d89b411461032d578063a14481941461034b578063a217fddf1461036757610142565b8063248a9ca31161010a578063248a9ca3146101fd5780632f2ff15d1461022d57806336568abe1461024957806342842e0e1461026557806342966c68146102815780636352211e1461029d57610142565b806301ffc9a71461014757806306fdde0314610177578063081812fc14610195578063095ea7b3146101c557806323b872dd146101e1575b600080fd5b610161600480360381019061015c91906122f4565b610457565b60405161016e919061233c565b60405180910390f35b61017f610469565b60405161018c91906123e7565b60405180910390f35b6101af60048036038101906101aa919061243f565b6104fb565b6040516101bc91906124ad565b60405180910390f35b6101df60048036038101906101da91906124f4565b610541565b005b6101fb60048036038101906101f69190612534565b610658565b005b610217600480360381019061021291906125bd565b6106b8565b60405161022491906125f9565b60405180910390f35b61024760048036038101906102429190612614565b6106d8565b005b610263600480360381019061025e9190612614565b6106f9565b005b61027f600480360381019061027a9190612534565b61077c565b005b61029b6004803603810190610296919061243f565b61079c565b005b6102b760048036038101906102b2919061243f565b6107f8565b6040516102c491906124ad565b60405180910390f35b6102e760048036038101906102e29190612654565b61087e565b6040516102f49190612690565b60405180910390f35b61031760048036038101906103129190612614565b610935565b604051610324919061233c565b60405180910390f35b6103356109a0565b60405161034291906123e7565b60405180910390f35b610365600480360381019061036091906124f4565b610a32565b005b61036f610a6b565b60405161037c91906125f9565b60405180910390f35b61039f600480360381019061039a91906126d7565b610a72565b005b6103bb60048036038101906103b6919061284c565b610a88565b005b6103d760048036038101906103d2919061243f565b610aea565b6040516103e491906123e7565b60405180910390f35b6103f5610b52565b60405161040291906125f9565b60405180910390f35b61042560048036038101906104209190612614565b610b76565b005b610441600480360381019061043c91906128cf565b610b97565b60405161044e919061233c565b60405180910390f35b600061046282610c2b565b9050919050565b6060600080546104789061293e565b80601f01602080910402602001604051908101604052809291908181526020018280546104a49061293e565b80156104f15780601f106104c6576101008083540402835291602001916104f1565b820191906000526020600020905b8154815290600101906020018083116104d457829003601f168201915b5050505050905090565b600061050682610ca5565b6004600083815260200190815260200160002060009054906101000a900473ffffffffffffffffffffffffffffffffffffffff169050919050565b600061054c826107f8565b90508073ffffffffffffffffffffffffffffffffffffffff168373ffffffffffffffffffffffffffffffffffffffff16036105bc576040517f08c379a00000000000000000000000000000000000000000000000000000000081526004016105b3906129e1565b60405180910390fd5b8073ffffffffffffffffffffffffffffffffffffffff166105db610cf0565b73ffffffffffffffffffffffffffffffffffffffff16148061060a575061060981610604610cf0565b610b97565b5b610649576040517f08c379a000000000000000000000000000000000000000000000000000000000815260040161064090612a73565b60405180910390fd5b6106538383610cf8565b505050565b610669610663610cf0565b82610db1565b6106a8576040517f08c379a000000000000000000000000000000000000000000000000000000000815260040161069f90612b05565b60405180910390fd5b6106b3838383610e46565b505050565b600060066000838152602001908152602001600020600101549050919050565b6106e1826106b8565b6106ea8161113f565b6106f48383611153565b505050565b610701610cf0565b73ffffffffffffffffffffffffffffffffffffffff168173ffffffffffffffffffffffffffffffffffffffff161461076e576040517f08c379a000000000000000000000000000000000000000000000000000000000815260040161076590612b97565b60405180910390fd5b6107788282611234565b5050565b61079783838360405180602001604052806000815250610a88565b505050565b6107ad6107a7610cf0565b82610db1565b6107ec576040517f08c379a00000000000000000000000000000000000000000000000000000000081526004016107e390612b05565b60405180910390fd5b6107f581611316565b50565b60008061080483611464565b9050600073ffffffffffffffffffffffffffffffffffffffff168173ffffffffffffffffffffffffffffffffffffffff1603610875576040517f08c379a000000000000000000000000000000000000000000000000000000000815260040161086c90612c03565b60405180910390fd5b80915050919050565b60008073ffffffffffffffffffffffffffffffffffffffff168273ffffffffffffffffffffffffffffffffffffffff16036108ee576040517f08c379a00000000000000000000000000000000000000000000000000000000081526004016108e590612c95565b60405180910390fd5b600360008373ffffffffffffffffffffffffffffffffffffffff1673ffffffffffffffffffffffffffffffffffffffff168152602001908152602001600020549050919050565b60006006600084815260200190815260200160002060000160008373ffffffffffffffffffffffffffffffffffffffff1673ffffffffffffffffffffffffffffffffffffffff16815260200190815260200160002060009054906101000a900460ff16905092915050565b6060600180546109af9061293e565b80601f01602080910402602001604051908101604052809291908181526020018280546109db9061293e565b8015610a285780601f106109fd57610100808354040283529160200191610a28565b820191906000526020600020905b815481529060010190602001808311610a0b57829003601f168201915b5050505050905090565b7f9f2df0fed2c77648de5860a4cc508cd0818c85b8b8a1ab4ceeef8d981c8956a6610a5c8161113f565b610a6683836114a1565b505050565b6000801b81565b610a84610a7d610cf0565b83836114bf565b5050565b610a99610a93610cf0565b83610db1565b610ad8576040517f08c379a0000000000000000000000000000000000000000000000000000000008152600401610acf90612b05565b60405180910390fd5b610ae48484848461162b565b50505050565b6060610af582610ca5565b6000610aff611687565b90506000815111610b1f5760405180602001604052806000815250610b4a565b80610b298461169e565b604051602001610b3a929190612cf1565b6040516020818303038152906040525b915050919050565b7f9f2df0fed2c77648de5860a4cc508cd0818c85b8b8a1ab4ceeef8d981c8956a681565b610b7f826106b8565b610b888161113f565b610b928383611234565b505050565b6000600560008473ffffffffffffffffffffffffffffffffffffffff1673ffffffffffffffffffffffffffffffffffffffff16815260200190815260200160002060008373ffffffffffffffffffffffffffffffffffffffff1673ffffffffffffffffffffffffffffffffffffffff16815260200190815260200160002060009054906101000a900460ff16905092915050565b60007f7965db0b000000000000000000000000000000000000000000000000000000007bffffffffffffffffffffffffffffffffffffffffffffffffffffffff1916827bffffffffffffffffffffffffffffffffffffffffffffffffffffffff19161480610c9e5750610c9d8261176c565b5b9050919050565b610cae8161184e565b610ced576040517f08c379a0000000000000000000000000000000000000000000000000000000008152600401610ce490612c03565b60405180910390fd5b50565b600033905090565b816004600083815260200190815260200160002060006101000a81548173ffffffffffffffffffffffffffffffffffffffff021916908373ffffffffffffffffffffffffffffffffffffffff160217905550808273ffffffffffffffffffffffffffffffffffffffff16610d6b836107f8565b73ffffffffffffffffffffffffffffffffffffffff167f8c5be1e5ebec7d5bd14f71427d1e84f3dd0314c0f7b2291e5b200ac8c7c3b92560405160405180910390a45050565b600080610dbd836107f8565b90508073ffffffffffffffffffffffffffffffffffffffff168473ffffffffffffffffffffffffffffffffffffffff161480610dff5750610dfe8185610b97565b5b80610e3d57508373ffffffffffffffffffffffffffffffffffffffff16610e25846104fb565b73ffffffffffffffffffffffffffffffffffffffff16145b91505092915050565b8273ffffffffffffffffffffffffffffffffffffffff16610e66826107f8565b73ffffffffffffffffffffffffffffffffffffffff1614610ebc576040517f08c379a0000000000000000000000000000000000000000000000000000000008152600401610eb390612d87565b60405180910390fd5b600073ffffffffffffffffffffffffffffffffffffffff168273ffffffffffffffffffffffffffffffffffffffff1603610f2b576040517f08c379a0000000000000000000000000000000000000000000000000000000008152600401610f2290612e19565b60405180910390fd5b610f38838383600161188f565b8273ffffffffffffffffffffffffffffffffffffffff16610f58826107f8565b73ffffffffffffffffffffffffffffffffffffffff1614610fae576040517f08c379a0000000000000000000000000000000000000000000000000000000008152600401610fa590612d87565b60405180910390fd5b6004600082815260200190815260200160002060006101000a81549073ffffffffffffffffffffffffffffffffffffffff02191690556001600360008573ffffffffffffffffffffffffffffffffffffffff1673ffffffffffffffffffffffffffffffffffffffff168152602001908152602001600020600082825403925050819055506001600360008473ffffffffffffffffffffffffffffffffffffffff1673ffffffffffffffffffffffffffffffffffffffff16815260200190815260200160002060008282540192505081905550816002600083815260200190815260200160002060006101000a81548173ffffffffffffffffffffffffffffffffffffffff021916908373ffffffffffffffffffffffffffffffffffffffff160217905550808273ffffffffffffffffffffffffffffffffffffffff168473ffffffffffffffffffffffffffffffffffffffff167fddf252ad1be2c89b69c2b068fc378daa952ba7f163c4a11628f55a4df523b3ef60405160405180910390a461113a83838360016119b5565b505050565b6111508161114b610cf0565b6119bb565b50565b61115d8282610935565b6112305760016006600084815260200190815260200160002060000160008373ffffffffffffffffffffffffffffffffffffffff1673ffffffffffffffffffffffffffffffffffffffff16815260200190815260200160002060006101000a81548160ff0219169083151502179055506111d5610cf0565b73ffffffffffffffffffffffffffffffffffffffff168173ffffffffffffffffffffffffffffffffffffffff16837f2f8788117e7eff1d82e926ec794901d17c78024a50270940304540a733656f0d60405160405180910390a45b5050565b61123e8282610935565b156113125760006006600084815260200190815260200160002060000160008373ffffffffffffffffffffffffffffffffffffffff1673ffffffffffffffffffffffffffffffffffffffff16815260200190815260200160002060006101000a81548160ff0219169083151502179055506112b7610cf0565b73ffffffffffffffffffffffffffffffffffffffff168173ffffffffffffffffffffffffffffffffffffffff16837ff6391f5c32d9c69d2a47ea670b442974b53935d1edc7fd64eb21e047a839171b60405160405180910390a45b5050565b6000611321826107f8565b905061133181600084600161188f565b61133a826107f8565b90506004600083815260200190815260200160002060006101000a81549073ffffffffffffffffffffffffffffffffffffffff02191690556001600360008373ffffffffffffffffffffffffffffffffffffffff1673ffffffffffffffffffffffffffffffffffffffff168152602001908152602001600020600082825403925050819055506002600083815260200190815260200160002060006101000a81549073ffffffffffffffffffffffffffffffffffffffff021916905581600073ffffffffffffffffffffffffffffffffffffffff168273ffffffffffffffffffffffffffffffffffffffff167fddf252ad1be2c89b69c2b068fc378daa952ba7f163c4a11628f55a4df523b3ef60405160405180910390a46114608160008460016119b5565b5050565b60006002600083815260200190815260200160002060009054906101000a900473ffffffffffffffffffffffffffffffffffffffff169050919050565b6114bb828260405180602001604052806000815250611a40565b5050565b8173ffffffffffffffffffffffffffffffffffffffff168373ffffffffffffffffffffffffffffffffffffffff160361152d576040517f08c379a000000000000000000000000000000000000000000000000000000000815260040161152490612e85565b60405180910390fd5b80600560008573ffffffffffffffffffffffffffffffffffffffff1673ffffffffffffffffffffffffffffffffffffffff16815260200190815260200160002060008473ffffffffffffffffffffffffffffffffffffffff1673ffffffffffffffffffffffffffffffffffffffff16815260200190815260200160002060006101000a81548160ff0219169083151502179055508173ffffffffffffffffffffffffffffffffffffffff168373ffffffffffffffffffffffffffffffffffffffff167f17307eab39ab6107e8899845ad3d59bd9653f200f220920489ca2b5937696c318360405161161e919061233c565b60405180910390a3505050565b611636848484610e46565b61164284848484611a9b565b611681576040517f08c379a000000000000000000000000000000000000000000000000000000000815260040161167890612f17565b60405180910390fd5b50505050565b606060405180602001604052806000815250905090565b6060600060016116ad84611c22565b01905060008167ffffffffffffffff8111156116cc576116cb612721565b5b6040519080825280601f01601f1916602001820160405280156116fe5781602001600182028036833780820191505090505b509050600082602001820190505b600115611761578080600190039150507f3031323334353637383961626364656600000000000000000000000000000000600a86061a8153600a858161175557611754612f37565b5b0494506000850361170c575b819350505050919050565b60007f80ac58cd000000000000000000000000000000000000000000000000000000007bffffffffffffffffffffffffffffffffffffffffffffffffffffffff1916827bffffffffffffffffffffffffffffffffffffffffffffffffffffffff1916148061183757507f5b5e139f000000000000000000000000000000000000000000000000000000007bffffffffffffffffffffffffffffffffffffffffffffffffffffffff1916827bffffffffffffffffffffffffffffffffffffffffffffffffffffffff1916145b80611847575061184682611d75565b5b9050919050565b60008073ffffffffffffffffffffffffffffffffffffffff1661187083611464565b73ffffffffffffffffffffffffffffffffffffffff1614159050919050565b60018111156119af57600073ffffffffffffffffffffffffffffffffffffffff168473ffffffffffffffffffffffffffffffffffffffff16146119235780600360008673ffffffffffffffffffffffffffffffffffffffff1673ffffffffffffffffffffffffffffffffffffffff168152602001908152602001600020600082825461191b9190612f95565b925050819055505b600073ffffffffffffffffffffffffffffffffffffffff168373ffffffffffffffffffffffffffffffffffffffff16146119ae5780600360008573ffffffffffffffffffffffffffffffffffffffff1673ffffffffffffffffffffffffffffffffffffffff16815260200190815260200160002060008282546119a69190612fc9565b925050819055505b5b50505050565b50505050565b6119c58282610935565b611a3c576119d281611ddf565b6119e08360001c6020611e0c565b6040516020016119f1929190613095565b6040516020818303038152906040526040517f08c379a0000000000000000000000000000000000000000000000000000000008152600401611a3391906123e7565b60405180910390fd5b5050565b611a4a8383612048565b611a576000848484611a9b565b611a96576040517f08c379a0000000000000000000000000000000000000000000000000000000008152600401611a8d90612f17565b60405180910390fd5b505050565b6000611abc8473ffffffffffffffffffffffffffffffffffffffff16612265565b15611c15578373ffffffffffffffffffffffffffffffffffffffff1663150b7a02611ae5610cf0565b8786866040518563ffffffff1660e01b8152600401611b079493929190613124565b6020604051808303816000875af1925050508015611b4357506040513d601f19601f82011682018060405250810190611b409190613185565b60015b611bc5573d8060008114611b73576040519150601f19603f3d011682016040523d82523d6000602084013e611b78565b606091505b506000815103611bbd576040517f08c379a0000000000000000000000000000000000000000000000000000000008152600401611bb490612f17565b60405180910390fd5b805181602001fd5b63150b7a0260e01b7bffffffffffffffffffffffffffffffffffffffffffffffffffffffff1916817bffffffffffffffffffffffffffffffffffffffffffffffffffffffff191614915050611c1a565b600190505b949350505050565b600080600090507a184f03e93ff9f4daa797ed6e38ed64bf6a1f0100000000000000008310611c80577a184f03e93ff9f4daa797ed6e38ed64bf6a1f0100000000000000008381611c7657611c75612f37565b5b0492506040810190505b6d04ee2d6d415b85acef81000000008310611cbd576d04ee2d6d415b85acef81000000008381611cb357611cb2612f37565b5b0492506020810190505b662386f26fc100008310611cec57662386f26fc100008381611ce257611ce1612f37565b5b0492506010810190505b6305f5e1008310611d15576305f5e1008381611d0b57611d0a612f37565b5b0492506008810190505b6127108310611d3a576127108381611d3057611d2f612f37565b5b0492506004810190505b60648310611d5d5760648381611d5357611d52612f37565b5b0492506002810190505b600a8310611d6c576001810190505b80915050919050565b60007f01ffc9a7000000000000000000000000000000000000000000000000000000007bffffffffffffffffffffffffffffffffffffffffffffffffffffffff1916827bffffffffffffffffffffffffffffffffffffffffffffffffffffffff1916149050919050565b6060611e058273ffffffffffffffffffffffffffffffffffffffff16601460ff16611e0c565b9050919050565b606060006002836002611e1f91906131b2565b611e299190612fc9565b67ffffffffffffffff811115611e4257611e41612721565b5b6040519080825280601f01601f191660200182016040528015611e745781602001600182028036833780820191505090505b5090507f300000000000000000000000000000000000000000000000000000000000000081600081518110611eac57611eab6131f4565b5b60200101907effffffffffffffffffffffffffffffffffffffffffffffffffffffffffffff1916908160001a9053507f780000000000000000000000000000000000000000000000000000000000000081600181518110611f1057611f0f6131f4565b5b60200101907effffffffffffffffffffffffffffffffffffffffffffffffffffffffffffff1916908160001a90535060006001846002611f5091906131b2565b611f5a9190612fc9565b90505b6001811115611ffa577f3031323334353637383961626364656600000000000000000000000000000000600f861660108110611f9c57611f9b6131f4565b5b1a60f81b828281518110611fb357611fb26131f4565b5b60200101907effffffffffffffffffffffffffffffffffffffffffffffffffffffffffffff1916908160001a905350600485901c945080611ff390613223565b9050611f5d565b506000841461203e576040517f08c379a000000000000000000000000000000000000000000000000000000000815260040161203590613298565b60405180910390fd5b8091505092915050565b600073ffffffffffffffffffffffffffffffffffffffff168273ffffffffffffffffffffffffffffffffffffffff16036120b7576040517f08c379a00000000000000000000000000000000000000000000000000000000081526004016120ae90613304565b60405180910390fd5b6120c08161184e565b15612100576040517f08c379a00000000000000000000000000000000000000000000000000000000081526004016120f790613370565b60405180910390fd5b61210e60008383600161188f565b6121178161184e565b15612157576040517f08c379a000000000000000000000000000000000000000000000000000000000815260040161214e90613370565b60405180910390fd5b6001600360008473ffffffffffffffffffffffffffffffffffffffff1673ffffffffffffffffffffffffffffffffffffffff16815260200190815260200160002060008282540192505081905550816002600083815260200190815260200160002060006101000a81548173ffffffffffffffffffffffffffffffffffffffff021916908373ffffffffffffffffffffffffffffffffffffffff160217905550808273ffffffffffffffffffffffffffffffffffffffff16600073ffffffffffffffffffffffffffffffffffffffff167fddf252ad1be2c89b69c2b068fc378daa952ba7f163c4a11628f55a4df523b3ef60405160405180910390a46122616000838360016119b5565b5050565b6000808273ffffffffffffffffffffffffffffffffffffffff163b119050919050565b6000604051905090565b600080fd5b600080fd5b60007fffffffff0000000000000000000000000000000000000000000000000000000082169050919050565b6122d18161229c565b81146122dc57600080fd5b50565b6000813590506122ee816122c8565b92915050565b60006020828403121561230a57612309612292565b5b6000612318848285016122df565b91505092915050565b60008115159050919050565b61233681612321565b82525050565b6000602082019050612351600083018461232d565b92915050565b600081519050919050565b600082825260208201905092915050565b60005b83811015612391578082015181840152602081019050612376565b60008484015250505050565b6000601f19601f8301169050919050565b60006123b982612357565b6123c38185612362565b93506123d3818560208601612373565b6123dc8161239d565b840191505092915050565b6000602082019050818103600083015261240181846123ae565b905092915050565b6000819050919050565b61241c81612409565b811461242757600080fd5b50565b60008135905061243981612413565b92915050565b60006020828403121561245557612454612292565b5b60006124638482850161242a565b91505092915050565b600073ffffffffffffffffffffffffffffffffffffffff82169050919050565b60006124978261246c565b9050919050565b6124a78161248c565b82525050565b60006020820190506124c2600083018461249e565b92915050565b6124d18161248c565b81146124dc57600080fd5b50565b6000813590506124ee816124c8565b92915050565b6000806040838503121561250b5761250a612292565b5b6000612519858286016124df565b925050602061252a8582860161242a565b9150509250929050565b60008060006060848603121561254d5761254c612292565b5b600061255b868287016124df565b935050602061256c868287016124df565b925050604061257d8682870161242a565b9150509250925092565b6000819050919050565b61259a81612587565b81146125a557600080fd5b50565b6000813590506125b781612591565b92915050565b6000602082840312156125d3576125d2612292565b5b60006125e1848285016125a8565b91505092915050565b6125f381612587565b82525050565b600060208201905061260e60008301846125ea565b92915050565b6000806040838503121561262b5761262a612292565b5b6000612639858286016125a8565b925050602061264a858286016124df565b9150509250929050565b60006020828403121561266a57612669612292565b5b6000612678848285016124df565b91505092915050565b61268a81612409565b82525050565b60006020820190506126a56000830184612681565b92915050565b6126b481612321565b81146126bf57600080fd5b50565b6000813590506126d1816126ab565b92915050565b600080604083850312156126ee576126ed612292565b5b60006126fc858286016124df565b925050602061270d858286016126c2565b9150509250929050565b600080fd5b600080fd5b7f4e487b7100000000000000000000000000000000000000000000000000000000600052604160045260246000fd5b6127598261239d565b810181811067ffffffffffffffff8211171561277857612777612721565b5b80604052505050565b600061278b612288565b90506127978282612750565b919050565b600067ffffffffffffffff8211156127b7576127b6612721565b5b6127c08261239d565b9050602081019050919050565b82818337600083830152505050565b60006127ef6127ea8461279c565b612781565b90508281526020810184848401111561280b5761280a61271c565b5b6128168482856127cd565b509392505050565b600082601f83011261283357612832612717565b5b81356128438482602086016127dc565b91505092915050565b6000806000806080858703121561286657612865612292565b5b6000612874878288016124df565b9450506020612885878288016124df565b93505060406128968782880161242a565b925050606085013567ffffffffffffffff8111156128b7576128b6612297565b5b6128c38782880161281e565b91505092959194509250565b600080604083850312156128e6576128e5612292565b5b60006128f4858286016124df565b9250506020612905858286016124df565b9150509250929050565b7f4e487b7100000000000000000000000000000000000000000000000000000000600052602260045260246000fd5b6000600282049050600182168061295657607f821691505b6020821081036129695761296861290f565b5b50919050565b7f4552433732313a20617070726f76616c20746f2063757272656e74206f776e6560008201527f7200000000000000000000000000000000000000000000000000000000000000602082015250565b60006129cb602183612362565b91506129d68261296f565b604082019050919050565b600060208201905081810360008301526129fa816129be565b9050919050565b7f4552433732313a20617070726f76652063616c6c6572206973206e6f7420746f60008201527f6b656e206f776e6572206f7220617070726f76656420666f7220616c6c000000602082015250565b6000612a5d603d83612362565b9150612a6882612a01565b604082019050919050565b60006020820190508181036000830152612a8c81612a50565b9050919050565b7f4552433732313a2063616c6c6572206973206e6f7420746f6b656e206f776e6560008201527f72206f7220617070726f76656400000000000000000000000000000000000000602082015250565b6000612aef602d83612362565b9150612afa82612a93565b604082019050919050565b60006020820190508181036000830152612b1e81612ae2565b9050919050565b7f416363657373436f6e74726f6c3a2063616e206f6e6c792072656e6f756e636560008201527f20726f6c657320666f722073656c660000000000000000000000000000000000602082015250565b6000612b81602f83612362565b9150612b8c82612b25565b604082019050919050565b60006020820190508181036000830152612bb081612b74565b9050919050565b7f4552433732313a20696e76616c696420746f6b656e2049440000000000000000600082015250565b6000612bed601883612362565b9150612bf882612bb7565b602082019050919050565b60006020820190508181036000830152612c1c81612be0565b9050919050565b7f4552433732313a2061646472657373207a65726f206973206e6f74206120766160008201527f6c6964206f776e65720000000000000000000000000000000000000000000000602082015250565b6000612c7f602983612362565b9150612c8a82612c23565b604082019050919050565b60006020820190508181036000830152612cae81612c72565b9050919050565b600081905092915050565b6000612ccb82612357565b612cd58185612cb5565b9350612ce5818560208601612373565b80840191505092915050565b6000612cfd8285612cc0565b9150612d098284612cc0565b91508190509392505050565b7f4552433732313a207472616e736665722066726f6d20696e636f72726563742060008201527f6f776e6572000000000000000000000000000000000000000000000000000000602082015250565b6000612d71602583612362565b9150612d7c82612d15565b604082019050919050565b60006020820190508181036000830152612da081612d64565b9050919050565b7f4552433732313a207472616e7366657220746f20746865207a65726f2061646460008201527f7265737300000000000000000000000000000000000000000000000000000000602082015250565b6000612e03602483612362565b9150612e0e82612da7565b604082019050919050565b60006020820190508181036000830152612e3281612df6565b9050919050565b7f4552433732313a20617070726f766520746f2063616c6c657200000000000000600082015250565b6000612e6f601983612362565b9150612e7a82612e39565b602082019050919050565b60006020820190508181036000830152612e9e81612e62565b9050919050565b7f4552433732313a207472616e7366657220746f206e6f6e20455243373231526560008201527f63656976657220696d706c656d656e7465720000000000000000000000000000602082015250565b6000612f01603283612362565b9150612f0c82612ea5565b604082019050919050565b60006020820190508181036000830152612f3081612ef4565b9050919050565b7f4e487b7100000000000000000000000000000000000000000000000000000000600052601260045260246000fd5b7f4e487b7100000000000000000000000000000000000000000000000000000000600052601160045260246000fd5b6000612fa082612409565b9150612fab83612409565b9250828203905081811115612fc357612fc2612f66565b5b92915050565b6000612fd482612409565b9150612fdf83612409565b9250828201905080821115612ff757612ff6612f66565b5b92915050565b7f416363657373436f6e74726f6c3a206163636f756e7420000000000000000000600082015250565b6000613033601783612cb5565b915061303e82612ffd565b601782019050919050565b7f206973206d697373696e6720726f6c6520000000000000000000000000000000600082015250565b600061307f601183612cb5565b915061308a82613049565b601182019050919050565b60006130a082613026565b91506130ac8285612cc0565b91506130b782613072565b91506130c38284612cc0565b91508190509392505050565b600081519050919050565b600082825260208201905092915050565b60006130f6826130cf565b61310081856130da565b9350613110818560208601612373565b6131198161239d565b840191505092915050565b6000608082019050613139600083018761249e565b613146602083018661249e565b6131536040830185612681565b818103606083015261316581846130eb565b905095945050505050565b60008151905061317f816122c8565b92915050565b60006020828403121561319b5761319a612292565b5b60006131a984828501613170565b91505092915050565b60006131bd82612409565b91506131c883612409565b92508282026131d681612409565b915082820484148315176131ed576131ec612f66565b5b5092915050565b7f4e487b7100000000000000000000000000000000000000000000000000000000600052603260045260246000fd5b600061322e82612409565b91506000820361324157613240612f66565b5b600182039050919050565b7f537472696e67733a20686578206c656e67746820696e73756666696369656e74600082015250565b6000613282602083612362565b915061328d8261324c565b602082019050919050565b600060208201905081810360008301526132b181613275565b9050919050565b7f4552433732313a206d696e7420746f20746865207a65726f2061646472657373600082015250565b60006132ee602083612362565b91506132f9826132b8565b602082019050919050565b6000602082019050818103600083015261331d816132e1565b9050919050565b7f4552433732313a20746f6b656e20616c7265616479206d696e74656400000000600082015250565b600061335a601c83612362565b915061336582613324565b602082019050919050565b600060208201905081810360008301526133898161334d565b905091905056fea26469706673582212207b5b67b9c3f31d3b0d8a5f9f758da346ea9b02389924734aec34b989317ad87b64736f6c63430008110033",
  "linkReferences": {},
  "deployedLinkReferences": {}
}